:020000040800F2
:10000000C021002099010008890B0008050B000899
:10001000850B0008790700081D1700080000000084
:1000200000000000000000000000000001010008C6
:10003000990700080000000045010008D9110008D8
:10004000B3010008B3010008B3010008B3010008C0
:10005000B3010008B3010008B3010008B3010008B0
:10006000B3010008B3010008B3010008B3010008A0
:10007000B3010008B3010008B3010008B301000890
:10008000B3010008B3010008B3010008B301000880
:10009000B3010008B3010008B3010008B301000870
:1000A000B3010008B3010008B3010008B301000860
:1000B000B3010008B3010008B3010008B301000850
:1000C000B3010008B3010008B3010008B301000840
:1000D000B3010008B3010008B3010008E1130008F0
:1000E000B3010008B3010008B3010008DFF80CD029
:1000F00000F088FA0048004761200008C021002075
:10010000224B19680868B0E8F00F80F30988BFF344
:100110006F8F4FF0000080F311884EF00D0E704786
:100120000000000006480068006880F3088862B696
:1001300061B6BFF34F8FBFF36F8F00DF00BF00BF0B
:1001400008ED00E0EFF30980BFF36F8F0F4B1A68E3
:1001500020E9F00F106008B54FF0500080F31188CF
:10016000BFF34F8FBFF36F8F03F02EF84FF00000F7
:1001700080F31188BDE8084019680868B0E8F00FFE
:1001800080F30988BFF36F8F704700BF28000020FD
:10019000EFF3058070470000064880470648004797
:1001A000FEE7FEE7FEE7FEE7FEE7FEE7FEE7FEE727
:1001B000FEE7FEE70D120008ED00000840EA01032B
:1001C0009B0703D009E008C9121F08C0042AFAD20D
:1001D00003E011F8013B00F8013B521EF9D27047D1
:1001E000D2B201E000F8012B491EFBD27047002279
:1001F000F6E710B513460A4604461946FFF7F0FF26
:10020000204610BD30B50B460146002020220124B7
:1002100009E021FA02F59D4205D303FA02F5491BD4
:1002200004FA02F52844151EA2F10102F1DC30BDEA
:100230002DE9F05F0546002092469B46884606461B
:10024000814640241BE0284641464746224600F0AE
:10025000FAF953465A46C01A914110D3114618462E
:10026000224600F0E1F92D1A67EB01084F462246BD
:100270000120002100F0D8F917EB00094E41201EA3
:10028000A4F10104DFDC484631462A464346BDE876
:10029000F09F2DE9FE4F804681EA0300C00F0C4617
:1002A000009021F0004123F00045B8EB0200A94185
:1002B00005D24046214690461C460B46024623F096
:1002C0000040104347D0270DC7F30A00C3F30A517B
:1002D0000290401A019040286BDAC3F3130040F4F7
:1002E000801B0098924620B10023D2EB030A63EBF7
:1002F0000B0B01985946C0F14002504600F094F9AA
:1003000006460D4650465946019A00F0ACF910EBEE
:1003100008006141002487EA115284EAE7731A4316
:1003200040D0009A62B3019A012A4FEA075215DCC5
:10033000001B61EB02014FF0004202EA0752CDE9D7
:100340000042001C41F5801132462B4600F0ACF90A
:1003500003B0BDE8F08F40462146F9E7001B61EB92
:100360000201001C41F5801300185B412018A2F522
:10037000001747EB030140EAD570B6196D4111E053
:100380006D084FEA360645EAC0754FEA0752001B72
:1003900061EB0201001C41F5801149084FEA300071
:1003A0000019514132462B4603B0BDE8F04F00F032
:1003B0006CB90098012240000023D0EB020263EBED
:1003C000E073009821464FEAE074B8EB000061EB5F
:1003D0000401E9E783F000435BE781F0004158E75F
:1003E0002DE9FE4F81EA030404F0004421F00041AE
:1003F00000944FF0000B23F0004350EA01045ED05C
:1004000052EA03045BD0C3F30A54C1F30A552C44E7
:10041000A4F2F3340194A0FB0254C1F3130141F49C
:100420008011C3F3130343F4801301FB024400FB68
:10043000034E840A970A44EA815447EA8357A4FB8F
:10044000076802958D0A05FB07854FEA932C04FB8C
:100450000C542705029D4FEA065847EA1637B5EBBC
:1004600008056EEB070C870E920E47EA811742EAE9
:100470008312A7FB0201B6EB0B0164EB00042B0D0A
:1004800043EA0C335E1844EB1C50DA465146E7FB56
:100490000201C5F313044FEA0B3343EA14534FEA46
:1004A0000432019C43EA0603A4F10C040294009C6C
:1004B000CDE900B400F0F8F803B0BDE8F08F0020FB
:1004C0000146F9E72DE9F04D81EA030404F0004B01
:1004D00021F0004514464FF0000A23F0004150EA95
:1004E000050220D054EA01021DD0C5F30A57024686
:1004F000C5F31303C1F31300C1F30A5640F480158A
:1005000043F48013A7EB0608101BD64608F2FD380B
:1005100073EB050002D308F1010801E092185B417A
:10052000B8F1000F03DA00200146BDE8F08D00208D
:100530004FF48011064684460EE0171B73EB050747
:1005400005D3121B63EB050306434CEA010C490873
:100550004FEA300092185B4150EA0107EDD152EAB0
:10056000030012D082EA040083EA0501084305D0A3
:10057000101BAB4106D20122002306E000224FF0FF
:10058000004302E06FF0010253101AEB06004CEB3F
:10059000085110EB0A0041EB0B01BDE8F04D00F0F3
:1005A00074B8C1F30A52C1F3130140F2FF3341F4AE
:1005B00080119A4202DA00200146704740F233432C
:1005C0009A42A2F2334202DC524200F03CB800F000
:1005D0002BB8000030B5041E71F1000404DB4FF0AD
:1005E0000044404264EB0101141E73F1000405DB7A
:1005F0001C464FF00043524263EB0403994208BF8C
:10060000904230BD064C074D06E0E06840F0010323
:1006100094E8070098471034AC42F6D3FFF76AFD20
:10062000543F0008743F0008202A04DB203A00FAF7
:1006300002F1002070479140C2F1200320FA03F339
:10064000194390407047202A04DB203A21FA02F037
:100650000021704721FA02F3D040C2F120029140FC
:10066000084319467047202A06DBCB17203A41FA87
:1006700002F043EAE07306E041FA02F3D040C2F12F
:100680002002914008431946704710B5141E73F1BB
:10069000000408DA401C41F1000192185B411A4342
:1006A00001D120F0010010BD2DE9F04D92469B468E
:1006B00011B1B1FA81F202E0B0FA80F22032904634
:1006C000FFF7B2FF04460F4640EA0A0041EA0B0179
:1006D00053465A46084313D0114653EA010019D035
:1006E000C8F140025046FFF7AEFF05460E465046A1
:1006F00059464246FFF798FF084305D0012004E021
:1007000020463946BDE8F08D0020054346EAE076F4
:100710002C4337430A986305E40AA0EB0800002243
:10072000FD0A44EA47540A3002D500200146E9E7B1
:10073000010510196941DDE9084500196941BDE865
:10074000F04DA2E708B50121042000F079FB10204C
:100750008DF803000420ADF8000003208DF802009E
:100760006946044800F031F90421024800F0C3F959
:1007700008BD00000008014000BFFEE710B500F012
:10078000C3F900F0D5FA00F0E5FBFFF7DBFF00F05E
:100790004DFC00F02DF810BD7047002107E042F637
:1007A000E06100BF0A1EA1F1010399B2FAD1021E55
:1007B000A0F1010398B2F2D17047000010B50A49C8
:1007C0000AA000F0B1F80848B0F8000420F4004096
:1007D0000549A1F800040846B0F800046FF30E00C4
:1007E000A1F8000410BD0000E40000202573000003
:1007F00010B500F045FF2348B0F8000420F4004095
:100800002049A1F800040846B0F800046FF30E0078
:10081000A1F800041CA000F087F840F6C410FFF710
:10082000BCFF1CA000F080F84FF4FA70FFF7B5FF92
:1008300015A000F079F840F6C410FFF7AEFF19A23A
:100840001CA11EA000F070F841F28830FFF7A5FF50
:1008500020A000F069F84FF4FA70FFF79EFF21A086
:1008600000F062F84FF4FA70FFF797FF42F2B822F7
:1008700021A125A000F058F840F6C410FFF78DFF25
:1008800010BD0000E400002041542B5253540D0AC7
:100890000000000041542B43574D4F44453D310D5E
:1008A0000A0000007171323231333231363830365D
:1008B000000000005265646D6900000041542B4344
:1008C000574A41503D222573222C222573220D0ABE
:1008D0000000000041542B4349504D55583D310D07
:1008E0000A00000041542B4349505345525645528B
:1008F0003D310D0A000000003139322E3136382EDC
:1009000038372E313500000041542B4349505354A1
:100910004152543D302C22544350222C2225732224
:100920002C25640D0A0000000FB400B59BB01DA873
:10093000019002A8019A1C9900F002FF002001908A
:1009400002A800F035F81BB05DF814FB70B5044642
:100950000D46294607A0FFF7E7FF294605A000F04E
:10096000DFFE214608A0FFF7DFFF214606A000F0CA
:10097000D7FE70BD41542B43495053454E443D3042
:100980002C25640D0A00000025730D0A00000000EC
:1009900010B504462146054800F06EFE00BF8021D8
:1009A000024800F08AFD0028F9D010BD0048004040
:1009B00070B50446002504E0605DFFF7E9FF681CA0
:1009C000C5B2605D0028F7D170BD2DE9F041024647
:1009D00000250026002000230024002791F803C0F2
:1009E0000CF00F0591F803C00CF0100CBCF1000FD7
:1009F00003D091F802C04CEA050591F800C0BCF1A3
:100A0000000F31D0146800202BE04FF0010C0CFADD
:100A100000F3B1F800C00CEA03069E4220D1830027
:100A20004FF00F0C0CFA03F7BC4305FA03FC4CEA39
:100A3000040491F803C0BCF1280F06D14FF0010C5B
:100A40000CFA00FCC2F814C00AE091F803C0BCF133
:100A5000480F05D14FF0010C0CFA00FCC2F810C091
:100A6000401C0828D1D31460B1F800C0BCF1FF0FBE
:100A700034DD546800202EE000F1080C4FF001082E
:100A800008FA0CF3B1F800C00CEA03069E4221D12B
:100A900083004FF00F0C0CFA03F7BC4305FA03FC7C
:100AA0004CEA040491F803C0BCF1280F05D100F111
:100AB000080C08FA0CF8C2F8148091F803C0BCF1D5
:100AC000480F07D100F1080C4FF0010808FA0CF8A4
:100AD000C2F81080401C0828CED35460BDE8F081D5
:100AE00002460020D3680B400BB1012000E000203B
:100AF000704741617047016170470AB1016100E0D0
:100B00004161704700BFFEE708B50121042000F0F5
:100B1000A7F910208DF803008020ADF80000032015
:100B20008DF8020069460448FFF74FFF8021024814
:100B3000FFF7E1FF08BD00000008014010B580216B
:100B40000748FFF7CDFF012804D180210448FFF7B3
:100B5000D0FF03E080210248FFF7CDFF10BD000069
:100B60000008014010B5044A0021044801F0C8FA09
:100B70000349086010BD0000243F0008AD110008C3
:100B8000A000002000BFFEE77047000070B5002104
:100B900000230F22C47804B3154C246804F4E064E5
:100BA000C4F5E064210AC1F10403CA40447804FAA0
:100BB00003F184781440214309010E4C0678A155B5
:100BC000047804F01F050124AC4005786D11AD00D8
:100BD00005F1E025C5F8004109E0047804F01F059F
:100BE0000124AC40044D0678761145F8264070BDCE
:100BF0000CED00E000E400E080E100E00249014388
:100C0000024A1160704700000000FA050CED00E098
:100C100070B500240EE00021204600F0E0F8002529
:100C200004E0002000F0FCF8681CC5B2802DF8DB61
:100C3000601CC4B2082CEEDB70BD000008B50121B9
:100C4000082000F00DF914208DF8030003208DF822
:100C500002004020ADF8000069460A48FFF7B5FEE3
:100C60008020ADF8000069460648FFF7AEFE01227D
:100C700040210448FFF741FF012280210148FFF78E
:100C80003CFF08BD000C014070B50546002413E090
:100C90008020204100EA050280210E48FFF72DFF49
:100CA000012240210B48FFF728FF0022402109487C
:100CB000FFF723FF601CC4B2082CE9DB01224021AE
:100CC0000448FFF71AFF002240210248FFF715FFF2
:100CD00070BD0000000C014010B5012280210948C0
:100CE000FFF70BFF012240210648FFF706FF002215
:100CF00080210448FFF701FF002240210148FFF74F
:100D0000FCFE10BD000C014010B5002280210748F8
:100D1000FFF7F3FE012240210448FFF7EEFE012217
:100D200080210248FFF7E9FE10BD0000000C0140E1
:100D300070B5002406E0002500E06D1CB5F57A7F53
:100D4000FBD3641CB4F57A7FF5D3FFF777FFAE20B1
:100D500000F056F8D52000F053F8802000F050F84D
:100D6000A82000F04DF83F2000F04AF8D32000F012
:100D700047F8002000F044F8402000F041F8A1209E
:100D800000F03EF8C82000F03BF8DA2000F038F818
:100D9000122000F035F8812000F032F8CF2000F06A
:100DA0002FF8D92000F02CF8F12000F029F8DB20F2
:100DB00000F026F8302000F023F8A42000F020F8FE
:100DC000A62000F01DF88D2000F01AF8142000F085
:100DD00017F8AF2000F014F8FFF71AFF70BD70B5D8
:100DE00005460C4645F0B00000F00AF8102141EA33
:100DF000141000F005F804F00F0000F001F870BDC9
:100E000010B50446FFF768FF7820FFF73DFF00208C
:100E1000FFF73AFF2046FFF737FFFFF775FF10BDDA
:100E200010B50446FFF758FF7820FFF72DFF40204C
:100E3000FFF72AFF2046FFF727FFFFF765FF10BDEA
:100E400029B1064AD2690243044BDA6104E0034A3D
:100E5000D2698243014BDA61704700000010024002
:100E600029B1064A92690243044B9A6104E0034A9D
:100E700092698243014B9A61704700000010024062
:100E800030B500210022002400232D4D6D6805F0AF
:100E90000C0121B1042905D0082923D105E0294DF1
:100EA000056022E0274D05601FE0254D6D6805F4C3
:100EB0007012234D6D6805F48034022505EB9242D3
:100EC0001CB9214D554305600BE01D4D6D6805F4BF
:100ED00000351DB11C4D5543056002E0194D5543C9
:100EE000056002E0174D056000BF00BF144D6D683E
:100EF00005F0F0010909154D6B5C0568DD404560A2
:100F00000F4D6D6805F4E061090A104D6B5C456892
:100F1000DD4085600A4D6D6805F46051C90A0B4DCE
:100F20006B5C4568DD40C560054D6D6805F440416A
:100F3000890B074D6B5CC568B5FBF3F5056130BDEA
:100F40000010024000127A0000093D001400002049
:100F50002400002000B585B001218803FFF780FF41
:100F600001210420FFF77CFF18208DF813004FF4B7
:100F70000070ADF8100003208DF8120004A9194884
:100F8000FFF723FD48208DF813004FF48060ADF883
:100F9000100003208DF8120004A91248FFF715FD78
:100FA0004FF4E13000900020ADF80C000C20ADF8BB
:100FB0000A000020ADF80800ADF80600ADF8040006
:100FC0006946094800F0D6FA012240F22551064848
:100FD00000F0AAFA00F00AF80121034800F061FAD3
:100FE00005B000BD000801400038014008B52520CB
:100FF0008DF8000001208DF803008DF801008DF8B8
:1010000002006846FFF7C2FD08BD000010B50446A7
:101010002146054800F030FB00BF8021024800F067
:101020004CFA0028F9D010BD0038014010B500F08E
:1010300001F810BD00B589B001210846FFF700FF97
:101040000020ADF81A0044F61F60ADF81C004720E0
:10105000ADF818000020ADF81E008DF8200006A99C
:101060004FF0804000F06AF902A800F05DF96020BE
:10107000ADF808004FF4FA70ADF80E000020ADF89E
:1010800010000120ADF80A0002A9800700F0FAF86C
:1010900001210420FFF7D4FE18208DF8070002205C
:1010A000ADF8040003208DF8060001A90448FFF7FD
:1010B0008CFC0121880700F0D9F809B000BD0000C0
:1010C0000008014010B500F001F810BD0CB500207B
:1010D000019000903348006840F480303149086046
:1010E00000BF3048006800F4003000900198401CB8
:1010F0000190009818B90198B0F5A06FF1D1294876
:10110000006800F4003010B10120009001E00020E0
:1011100000900098012843D12348006840F0100057
:10112000214908600846006820F00300086008466E
:10113000006840F0020008601A4840681949486099
:101140000846406848600846406840F4806048604F
:101150000846406820F47C1048600846406840F427
:10116000E81048600846006840F08070086000BFE2
:101170000C48006800F000700028F9D00948406869
:1011800020F00300074948600846406840F002002C
:10119000486000BF0348406800F00C000828F9D1FF
:1011A0000CBD0000001002400020024000BF00BF44
:1011B000FFF7C4FC0A2104A0FFF7C8FB4FF47A70C4
:1011C00001F022FFF4E700004920616D2065737093
:1011D000383236360000000010B500BF502080F3D2
:1011E0001188BFF34F8FBFF36F8F00BF02F05AFC1F
:1011F00018B14FF080500449086000BF002080F310
:10120000118800BF10BD000004ED00E010B51348C8
:10121000006840F001001149086008464068104924
:1012200008400E494860084600680E4908400B49CE
:1012300008600846006820F480200860084640687E
:1012400020F4FE0048604FF41F008860FFF73AFF6B
:101250004FF000600449086010BD0000001002401B
:101260000000FFF8FFFFF6FE08ED00E021B1028864
:1012700042F00102028004E002884FF6FE731A4039
:101280000280704770B5002400220023058C4FF6C1
:10129000EF7635400584028C8388048B48F6FF7511
:1012A0002C404FF6FF452C400D884FF6FF7606EA9E
:1012B00005252C434FF6DF752A400D8906EA0515F2
:1012C0002A434D8806EA05152A43154DA84202D047
:1012D000144DA8421DD14FF67F752A404D894FF617
:1012E000FF7606EA05152A434FF6BF752A408D881A
:1012F00006EA05152A434FF6FF352B404FF2FF75DE
:101300002B408D8906EA85052B43CD8906EA8505A4
:101310002B4383800483CD880587028470BD000041
:10132000002C014000340140002101804180818077
:10133000C180018141818181C18170470022028881
:101340001D4B98420ED01D4B98420BD0B0F1804FF0
:1013500008D01B4B984205D01A4B984202D01A4B2A
:10136000984204D14FF68F731A404B881A43174B9B
:10137000984207D0164B984204D04FF6FF431A40CC
:10138000CB881A4302808B8883850B8803850A4BA0
:1013900098420BD0094B984208D00E4B984205D08A
:1013A0000D4B984202D00D4B984201D10B7A038627
:1013B0000123838270470000002C0140003401406B
:1013C0000004004000080040000C004000100040F5
:1013D000001400400040014000440140004801402A
:1013E00008B540F22551254800F074F818B3244898
:1013F000B0F80004C0F30E0040F2FF31884215DA65
:101400001E4800F034F9C2B21D48B0F80004C0F321
:101410000E031B48B0F80004401C1949B1F8001431
:1014200060F30E011648A0F80014C25440F2255192
:10143000124800F027F840F22441104800F04AF822
:10144000D0B10F48B0F8000420F4004000F500408F
:101450000B49A1F800040020B1F80014C1F30E01FB
:10146000074A50540548008800900448001D008831
:101470000090FFF7A3F900BF08BD0000004800403E
:10148000E400002010B50022002340F66A14A142B7
:1014900000D100BF0A1201249440A3B2DC430480AF
:1014A00010BD21B1828942F40052828104E0828918
:1014B0004DF6FF731A408281704702460020B1F555
:1014C000007F00D100BF13880B400BB1012000E06A
:1014D0000020704770B5024600240023002500203C
:1014E00040F66A16B14200D100BFC1F3421501F0C7
:1014F0001F03012606FA03F3012D02D1968933401A
:1015000006E0022D02D1168A334001E0968A33406C
:101510000C12012606FA04F41688344013B10CB1FB
:10152000012000E0002070BDF0B503460024002635
:101530000025002040F66A17B94200D100BF1846C6
:10154000C1F3421401F01F06012707FA06F5012C2A
:1015500001D10C3004E0022C01D1103000E0143035
:101560001AB107682F43076002E00768AF430760BE
:10157000F0BD00002DE9F04786B005460E46002478
:10158000A24600BFA1460027B08900B100BF2F4688
:101590002C8A4CF6FF700440F08804432C82AC89FE
:1015A0004EF6F3100440B08831890843718908432E
:1015B0000443AC81AC8A4FF6FF400440B089044339
:1015C000AC8201A8FFF75CFC1F48874202D1DDF81E
:1015D00010A001E0DDF80CA0A88900F4004040B1A3
:1015E0000AEBCA0000EB0A1031684900B0FBF1F8C1
:1015F00007E00AEBCA0000EB0A1031688900B0FB73
:10160000F1F86420B8FBF0F004012009642101FB2B
:101610001089A88900F4004040B1322000EBC900D5
:10162000B0FBF1F000F00700044308E0322000EBCB
:1016300009106421B0FBF1F000F00F0004432C818D
:1016400006B0BDE8F08700000038014008B527204B
:101650008DF8000001208DF8030005208DF80100B1
:1016600000208DF802006846FFF790FA08BD014699
:101670008888C0F308007047C1F308028280704771
:1016800000B585B001210820FFF7EAFB012188049D
:10169000FFF7D6FB18208DF813004FF48060ADF8EB
:1016A000100003208DF8120004A91A48FFF78DF9E5
:1016B00048208DF813004FF40060ADF8100004A925
:1016C0001448FFF782F94FF4E13000900C20ADF898
:1016D0000A000020ADF80800ADF80600ADF80400DF
:1016E000ADF80C0069460C48FFF744FF012240F2B8
:1016F00025510948FFF718FF012240F2244106480E
:10170000FFF712FFFFF7A2FF01210348FFF7C9FE11
:1017100005B000BD000C01400048004000BFFEE7DE
:101720000FB4054B10B503A9044A029800F0F4F871
:1017300010BC5DF814FB000051200008E000002000
:1017400037B514460846064B6A46214600F0E4F8D1
:1017500004466946002000F076FC20463EBD0000AD
:1017600047200008EFF311807047EFF305807047C2
:10177000EFF31080704702E008C8121F08C1002A6A
:10178000FAD170477047002001E001C1121F002A02
:10179000FBD170472DE9FF5F82B00021DDE9043005
:1017A000020DDDF840B0034318D044F61050A2F209
:1017B000FF3242431514119801281FD0A5EB0B00EE
:1017C000401C5FEA000A4FF000064E4FDFF83891E8
:1017D000B046504615D5CAF1000413E01198012413
:1017E0004AA3012801D16FEA0B010298119AC0E9BE
:1017F0000031C0E9024206B0BDE8F09FCBF1000025
:10180000DFE704460021404A491842EB0450CDE985
:10181000001012E0E00707D032463B4640464946FA
:10182000FEF7DEFD8046894632463B4610461946A5
:10183000FEF7D6FD06460F466410002CEAD1DDE91E
:101840000401DDE90023BAF1000F06DAFEF7C8FD56
:1018500042464B46FEF7C4FD05E0FEF733FE424626
:101860004B46FEF72FFE04460E460022284BFEF79D
:10187000B1FE03D84FF0FF30014607E00022254BB0
:1018800020463146FEF705FDFEF78BFE102409E0E9
:10189000002C0ADB0A220023FEF7CAFC039B30322D
:1018A0001A55641E50EA0102F2D1641C039AC4F175
:1018B00011031444119A012A03D0012208430DD1C7
:1018C0000AE0084304D000204FF0110B119072E79A
:1018D000A3EB0B056D1E0DE05B4504DD4FF0000230
:1018E00005F1010504E003DA4FF00002A5F101055E
:1018F000002AECD002981199C0E90231C0E90045F4
:1019000079E70000000014400000F03F30000000C4
:101910000000F0430000E03F2DE9FF4F95B09B46EB
:101920008946064600250FE2252877D10024274660
:10193000F84A0121059400E0044316F8013F203BDA
:1019400001FA03F01042F7D130782A2811D06FF055
:101950002F033078A0F13002092A16D8059A44F0F6
:10196000020402EB820203EB42021044761C059053
:10197000EFE759F8042B0592002A03DA504244F4A9
:101980000054059044F00204761C30782E2816D1BD
:1019900016F8010F44F004042A280DD06FF02F022E
:1019A0003078A0F13003092B09D807EB870302EB4D
:1019B0004303C718761CF3E759F8047B761C30788C
:1019C0006C280FD006DC4C2817D068280DD06A2868
:1019D00014D104E0742810D07A280FD10DE044F41B
:1019E00000140AE044F4801401E044F440147278D6
:1019F000824202D104F58014761C761C3078662869
:101A00000BD013DC582877D009DC002875D0452886
:101A1000F6D04628F4D047281AD19DE118E0632873
:101A200035D0642879D0652812D195E1702873D01B
:101A300008DC6728F1D069286FD06E280DD06F2898
:101A400006D1B5E073282CD0752875D0782874D0CD
:101A50005A46179990476D1C75E1C4F3025002284D
:101A600009D003280DD0D9F8001004280DD00D603E
:101A700009F1040967E1D9F80010EA17C1E9005239
:101A8000F6E7D9F800100D80F2E70D70F0E719F8CD
:101A9000041B8DF8001000208DF80100EA4601209B
:101AA00003E059F804AB4FF0FF3061074FF000013D
:101AB00002D40DE008F101018846B9420FDA8045F1
:101AC000F8DB1AF808100029F4D108E008F1010148
:101AD00088468142FADB1AF808100029F6D10598E9
:101AE0005B46A0EB080721463846179A00F094FAA7
:101AF000284400EB080507E04DE029E10DE01AF865
:101B0000010B5A4617999047B8F10108F7D25B4686
:101B100021463846179A13E142E00A220092C4F3A4
:101B200002524FF0000A022A08D059F804CB032AC7
:101B30004FEAEC710AD00DE029E02AE009F1070133
:101B400021F00702F2E802C1914609E00FFA8CFC8D
:101B50004FEAEC71042A03D14FFA8CFC4FEAEC7186
:101B6000002907DA0A460021DCF1000C61EB0201D2
:101B70002D2202E0220504D52B228DF8042001221B
:101B800003E0E20701D02022F7E7904659E00A215E
:101B900002E010220DE010214FF0000A00910BE04E
:101BA00010224FF0000A44F004040827009203E0DA
:101BB00008224FF0000A0092C4F30252022A05D014
:101BC00059F804CB0021032A08D009E009F10701E4
:101BD00021F00702F2E802C1914605E01FFA8CFCF1
:101BE000042A01D10CF0FF0C4FF00008220728D581
:101BF000702806D0009B83F0100353EA0A0305D037
:101C00000EE040228DF80420012208E05CEA010287
:101C100006D030228DF804208DF80500022290466F
:101C2000009B83F0080353EA0A030AD15CEA01022D
:101C300001D1620705D530228DF804204FF001084C
:101C40007F1E582804D034A003900EA802900DE007
:101C500036A0F9E753466046009AFEF7E9FA844653
:101C60000398825C0298401E029002705CEA0100B8
:101C7000F0D1029806A9081A00F1200A600702D5DF
:101C800024F4803400E00127574502DDA7EB0A0069
:101C900000E0002000EB0A01009005984144401A42
:101CA0000590E00306D45B462146179A059800F09C
:101CB000B3F90544002706E001A85A46C05D17990C
:101CC00090476D1C7F1C4745F6DBE0030CD55B4657
:101CD0002146179A059800F09FF9054404E030204A
:101CE0005A46179990476D1C0099481E009000298C
:101CF000F5DC08E0029802995A460078491C0291E6
:101D0000179990476D1CBAF10001AAF1010AF1DCA4
:101D100065E10000092801003031323334353637AF
:101D20003839616263646566000000003031323327
:101D300034353637383941424344454600000000C7
:101D400000F058F90544761C307800287FF4ECAD9B
:101D500019B02846BDE8F08F620700D4062709F1C4
:101D6000070222F0070CFCE80223E14603F00048DA
:101D70005FEA080C02D00FF2702C0DE05FEA045C01
:101D800002D50FF2682C07E05FEAC47C02D00FF2A4
:101D9000602C01E0AFF2700C4FF0FF3823F00043ED
:101DA000CDF850C065280CD006DC452809D046285F
:101DB0001DD047283DD13DE0662818D067287ED148
:101DC00038E00021112F01DB112000E0781CCDE963
:101DD000000106A90EA8FFF7DDFCDDE90F010E9A50
:101DE00003910021009207F1010A04914DE04FF0A8
:101DF00000400097CDE9011006A90EA8FFF7CAFC24
:101E0000DDE90F0203920E9B11990022DDF80CA070
:101E10000093049211B9791C00EB010AB7EB0A0098
:101E200004D4C0F1FF3007F1010A0490AAEB0700C7
:101E3000019044E0012F00DA01270021112F01DD7C
:101E4000112000E03846CDE9000106A90EA8FFF7F1
:101E5000A1FCDDE90F010E9A03910021049100928B
:101E6000BA4621070CD40399514500DA8A46BAF1E3
:101E7000010F05DD009AAAF10101515C302908D05B
:101E8000B84202DA10F1040F06DA0121CDE901109F
:101E900015E0AAF10101E9E7002805DC04990144F5
:101EA0000491AAEB000102E0411C514500DD8A4685
:101EB0000499401A401C01904FF000400290200706
:101EC00004D40198504501DBCDF8048000208DF842
:101ED0004F0002980DF14F07B0F1004F25D02B2095
:101EE0000E9002984FF0020800280CDA404202904F
:101EF0002D200E9007E00A210298FEF783F9303179
:101F0000029007F8011DB8F10001A8F10108F2DC08
:101F100002980028EFD1791E0E980870307800F0F2
:101F2000200040F0450007F8020D12A8C01B00F188
:101F300007081498007800B1012000EB0A0101980D
:101F400001EBE07105984144401A401E0590E00302
:101F500006D45B462146179A059800F05DF80544C3
:101F60001498007818B15A46179990476D1CE003F1
:101F700024D55B462146179A059800F04DF8054494
:101F80001CE00498002807DBDDE90301884203DD3B
:101F90000098405C179901E0179930205A46904705
:101FA000049805F10105401C04900198401E019021
:101FB00004D12E205A46179990476D1CBAF10001A2
:101FC000AAF1010ADDDC05E017F8010B5A46179962
:101FD00090476D1CB8F10001A8F10108F4DC5B46E4
:101FE0002146179A0598ABE62D0000002B00000053
:101FF000200000002DE9F041044600251E4617464A
:10200000880404D405E039462020B0476D1C641EC6
:10201000F9D52846BDE8F0812DE9F04104460025B8
:102020001E469046C80301D5302700E020278804CB
:1020300004D505E041463846B0476D1C641EF9D50D
:102040002846BDE8F0810A68531C0B601070704789
:1020500070B504460D46E0B2FEF7D8FF204670BDCD
:10206000FEF78CFB4FF44070FEF7C8FD00F006F859
:10207000FEF778FD00F022F800BFFEE710B5FFF78D
:1020800074FB48B9FFF774FB30B90B4800680228AD
:1020900005D1FFF767FB10B16FF0050409E00648B2
:1020A000006820B9012004490860002401E04FF0D5
:1020B000FF34204610BD00009C00002010B5FFF743
:1020C00054FB48B9FFF754FB30B90C4800680228AC
:1020D00005D1FFF747FB10B16FF005040CE007488E
:1020E0000068012806D102200449086001F008F8C0
:1020F000002401E04FF0FF34204610BD9C0000207A
:102100002DE9F04786B080468946144600200490A9
:10211000FFF72BFB00285DD1FFF72AFB002859D1E0
:102120002D480068022803D1FFF71CFB002851D17D
:10213000B8F1000F4ED080261825002005900DF133
:10214000140A471E44B3206808B1D4F800A0A0695F
:1021500000B1A5692DB1382D03D8207900F0010018
:1021600018B1002006B0BDE8F087606908B1606969
:102170008608A06840B1E0685C2805D3206918B1E2
:10218000606908B1012708E0A06830B9E06820B9AB
:10219000206910B9002700E00027012F0CD1216928
:1021A000A0684B463246CDE9005102905146404668
:1021B00001F006FC04900DE067B904A8B2B24B46EA
:1021C0005146CDE90050404601F0C8FB012801D03E
:1021D000002004900498C5E79C0000202DE9F04100
:1021E00005460E461648076816480068001D00F0B0
:1021F0008BFD681C38B936B112480168091D1248B8
:1022000000F0D8FD1AE07C190E4800684460BC421A
:1022100007D20C480168091D0C48006800F0B0FDA9
:102220000CE008480168091D0948006800F0A8FD95
:1022300008480068844201D206480460BDE8F08185
:102240003C00002028000020D80900203000002099
:102250002C0000205800002010B5044600F0B6FD08
:1022600024480068401C234908602348006840B99E
:10227000214804600846006801280DD100F0F8F9F3
:102280000AE01E48006838B91B480068C06AE16A65
:10229000884201D81848046019480068401C184951
:1022A00008600846006860641649E06A0968884268
:1022B00002D91449E06A0860E16A01EB8101124A1F
:1022C00002EB8100211D00F075FD00F0A9FD0B4817
:1022D000006868B108480068C06AE16A884207D2AD
:1022E0004FF0805009490860BFF34F8FBFF36F8FE5
:1022F00010BD00003800002028000020440000200D
:1023000054000020400000202805002004ED00E0DB
:1023100008B500F05BFD12480068E8B9114800F00C
:102320001FFD114800F01CFD0E48104908600E48C2
:102330000F49086000200F4B0F4A102100900A201F
:1023400001F006F8064908600846006820B10BA1B4
:102350000348006800F01CFE00F062FD08BD0000AC
:102360006C000020EC090020000A0020640000201E
:1023700068000020140A0020640A0020546D725185
:102380000000000010B516E000F020FD0C48C06809
:10239000C468201D00F0B8FC0A480068401E0949C6
:1023A000086009480068401E0749086000F038FDD1
:1023B000204600F05EF8044800680028E4D110BD13
:1023C000C4090020380000203400002070B5044605
:1023D0000D46206C70B1216CE0680844E0606168D3
:1023E000E068884201D32068E0602846226CE168FA
:1023F000FDF7E4FE70BD2DE9F04104460F46154699
:102400004FF00008A66B206C40B9206860BB606884
:1024100001F0EAFB80460020606025E07DB9394686
:10242000226CA068FDF7CAFE216CA0680844A06079
:10243000D4E90110884217D32068A06014E039461F
:10244000226CE068FDF7BAFE216CE068401AE0609B
:102450002168E068884203D2216C6068401AE0601D
:10246000022D01D106B1761E701CA0634046BDE866
:10247000F08110B5044694F8590030B9206B00F093
:10248000EDFC204600F0EAFC1AE094F8590001281F
:1024900003D1204600F0E2FC12E094F85900022833
:1024A00001D1012000E0002050B900BF502080F38E
:1024B0001188BFF34F8FBFF36F8F00BF00BFFEE7E0
:1024C00010BD00000146084A126812680AB90122CC
:1024D00000E000220A600A6822B9034A1268D26842
:1024E000106800E0002070476400002030B54FF411
:1024F0004063174800F007042CB1C01D20F007000E
:10250000134C041B1B1B0246124C22600024114D6D
:102510006C60D018083820F007000F4C20600024B1
:102520000D4D2D686C600C4D2D682C601146441AC1
:102530004C60094C24680C60084D4C682C60084DB8
:102540004C682C604FF00044064D2C6030BD0000FC
:10255000040B0020840000208C0000209400002048
:10256000900000209800002000BFFFF70BFF0648F6
:1025700000680128F9D94FF0805004490860BFF382
:102580004F8FBFF36F8FF0E72805002004ED00E0C8
:102590002DE9F04106460D4617469846069C0DB9B2
:1025A000246000E02760E66325640121204600F0F6
:1025B0003FFF84F84C80BDE8F0812DE9F05F824652
:1025C0000F4690469B460A9E0C9C4FEA8801A52226
:1025D000206BFDF705FEA8F10100216B01EB8009DE
:1025E00029F0070909F0070008B9012000E00020E0
:1025F00050B900BF502080F31188BFF34F8FBFF355
:102600006F8F00BF00BFFEE7002507E0795D04F192
:1026100034004155785D00B902E06D1C102DF5D3F2
:1026200000BF002143200155382E00D33726E66233
:10263000E66400202065201D00F09FFB04F11800D7
:1026400000F09BFB2461C6F13800A06164620020A9
:10265000606584F858005A465146484600F042FBEF
:1026600020600B9808B10B980460BDE8F09F000053
:1026700010B5002407E004EB84010F4A02EB81004F
:1026800000F06EFB641C382CF5D30C4800F068FB9E
:102690000B4800F065FB0B4800F062FB0A4800F0B5
:1026A0005FFB0A4800F05CFB0448094908600448E5
:1026B0000849086010BD0000280500208809002096
:1026C0009C090020B0090020C4090020D80900207E
:1026D0002C0000203000002010B50146164800E014
:1026E000006803688B42FBD30246436813448B4265
:1026F00004D143684C682344436001460A464B6852
:1027000013440468A34211D10C4C03682468A3420B
:1027100008D04B680468646823444B6003681B68F6
:102720000B6005E0054B1B680B6001E003680B6064
:10273000884200D0016010BD840000208C00002081
:102740002DE9F04104460D4616461F464FF000089D
:1027500065602461B5420CD8F01BA169884202D3A0
:102760004FF0010811E0211D0948006800F008FB46
:102770000BE0BE4204D2BD4202D34FF0010804E098
:10278000211D0448006800F0FBFA4046BDE8F081D6
:10279000680000206400002070B5054600F016FBBC
:1027A000A86B08B9012400E0002400F039FB2046A2
:1027B00070BD70B5054600F009FBA86BE96B884257
:1027C00001D1012400E0002400F02AFB204670BD66
:1027D000F8B505460F4616480068C068C468201D55
:1027E00000F092FAE06901281DD1A06941192B4639
:1027F0003A462046FFF7A4FFA8B1002003462A4628
:1028000001460090204601F04BFB064656B900BF3A
:10281000502080F31188BFF34F8FBFF36F8F00BF3D
:1028200000BFFEE700BF2046616A8847F8BD000090
:1028300064000020F0B587B082E00398002811DA28
:1028400004AE56B900BF502080F31188BFF34F8FFC
:10285000BFF36F8F00BF00BFFEE7D6E90020B1686D
:10286000904700BF039800286ADB059C606908B99F
:10287000012000E0002010B9201D00F045FA02A858
:1028800000F0C0F8054603980A2857D2DFE800F0A8
:1028900009050731334F0608323400BF00BF00BFBF
:1028A00000BF0498A269811803462A462046FFF714
:1028B00047FFE8B12046616A8847E069012817D1DF
:1028C000002000900498A169421800231946204670
:1028D00001F0E6FA074657B900BF502080F311888F
:1028E000BFF34F8FBFF36F8F00BF00BFFEE700BF86
:1028F00025E000BF23E000BF0498A061A06908B1F3
:10290000012000E0002050B900BF502080F3118862
:10291000BFF34F8FBFF36F8F00BF00BFFEE7A0690B
:1029200041192B462A462046FFF70AFF07E094F894
:102930002C0010B9204600F091FA00E000BF00BF63
:10294000002203A90448006800F00EFF00287FF46D
:1029500074AF07B0F0BD00006C000020F8B505466C
:102960000C4600F029FC684600F04CF8064600983A
:1029700020BB44B9B54206D801F0D4F93146284607
:10298000FFF726FF1CE03CB10E480068006808B95C
:10299000012000E000200446A91B22460A480068E6
:1029A00000F00CFB01F0BEF950B94FF08050074920
:1029B0000860BFF34F8FBFF36F8F01E001F0B2F9F2
:1029C000F8BD0000680000206C00002004ED00E06D
:1029D0000A490968096809B9012100E0002121B10B
:1029E0004FF0FF31064A116006E004490968C968E2
:1029F000C868034A41681160704700002C0000203D
:102A00005800002070B5044601F046F80546074816
:102A10000068854204D200F00BF80120206001E03C
:102A20000020206001480560284670BD7400002029
:102A30002DE9F84332E024480068C0680568224860
:102A40000068C068C468201D00F05EF92046616A15
:102A50008847E069012821D1A0694619AE4207D90B
:102A600066602461211D1848006800F089F915E0AE
:102A7000002003462A4601460090204601F010FA45
:102A8000074657B900BF502080F31188BFF34F8F1E
:102A9000BFF36F8F00BF00BFFEE700BF0A480068AA
:102AA000006808B9012000E000200028C3D00648D3
:102AB000D0F8008005480068034908600348C0F862
:102AC0000080BDE8F883000064000020680000205A
:102AD0000E480068401C08B9012000E0002050B9F1
:102AE00000BF502080F31188BFF34F8FBFF36F8F6B
:102AF00000BF00BFFEE700BF502080F31188BFF386
:102B00004F8FBFF36F8F00BF00BFFEE7780000203C
:102B100008B500BF6846FFF7D5FC0446204600997B
:102B2000FFF71CFFFFF786FEF4E770B5044600F0E0
:102B30004DF994F9455010E0606A08B9012000E0B1
:102B4000002038B904F1240001F0A0F818B100F019
:102B500095FA00E003E0681E45B2002DECDC00BFF2
:102B6000FF2084F8450000F05BF900F02FF994F99C
:102B7000445010E0206908B9012000E0002048B965
:102B800004F1100001F082F808B100F077FA681E35
:102B900045B200E001E0002DECDC00BFFF2084F82E
:102BA000440000F03DF970BD2DE9F04104464FF0BE
:102BB000000800F001FB4648006808B9FFF796FCE2
:102BC00044480068204000286BD1D4B1083404F098
:102BD0000700B0B104F00700C0F10800044404F09D
:102BE000070008B9012000E0002050B900BF5020C4
:102BF00080F31188BFF34F8FBFF36F8F00BF00BF0B
:102C0000FEE7002C4DD034480068844249D8334E4A
:102C10003046056801E02E462D686868A04202D261
:102C200028680028F7D12A480068854239D03068E2
:102C300000F10808286830606868001B102819D95E
:102C40002F1907F0070008B9012000E0002050B953
:102C500000BF502080F31188BFF34F8FBFF36F8FF9
:102C600000BF00BFFEE76868001B78606C603846F4
:102C7000FFF732FD184968680968081A16490860A4
:102C80000846006816490968884203D2124800685D
:102C9000134908600F4968680968084368600020A4
:102CA000286001F03FF808F0070008B9012000E0B3
:102CB000002050B900BF502080F31188BFF34F8F20
:102CC000BFF36F8F00BF00BFFEE74046BDE8F08155
:102CD0008C0000209800002090000020840000203C
:102CE00094000020001F4FF080730360001F21F04C
:102CF00001030360001F034B036014380260203897
:102D000070470000D12A000801460A69D1E9013064
:102D10009860D1E9010358605068884201D1886801
:102D20005060002008611068401E106010687047F5
:102D3000034B0360034B0B6080231360704700005C
:102D40000417002060170020034B0360034B0B6047
:102D50004FF480731360704760190020BC19002085
:102D600000F1080141604FF0FF31816000F108017E
:102D7000C16001610021016070470021016170475D
:102D800010B502460B685C1C0CB9106907E002F133
:102D9000080000E04068446824689C42FAD944680E
:102DA0004C604C68A160886041600A611468641CD2
:102DB000146010BD42684A6093688B6093685960E4
:102DC0009160086103685B1C0360704700BF50207E
:102DD00080F31188BFF34F8FBFF36F8F00BF0E4892
:102DE0000068401C0C49086008460068012812D1A0
:102DF0000A480068C0B208B9012000E0002050B9BC
:102E000000BF502080F31188BFF34F8FBFF36F8F47
:102E100000BF00BFFEE770477800002004ED00E02F
:102E20000D48006850B900BF502080F31188BFF3EF
:102E30004F8FBFF36F8F00BF00BFFEE706480068EB
:102E4000401E054908600846006820B9002080F34C
:102E5000118800BF00BF70477800002070B506469B
:102E60003546002E3FD0083D2C461F496068096852
:102E7000084008B1012000E0002050B900BF5020F8
:102E800080F31188BFF34F8FBFF36F8F00BF00BF78
:102E9000FEE7206808B9012000E0002050B900BF1B
:102EA000502080F31188BFF34F8FBFF36F8F00BFA7
:102EB00000BFFEE70C4960680968084098B12068C7
:102EC00088B90949606809688843606000F074F94E
:102ED0000649606809680844044908602046FFF70D
:102EE000FBFB00F01FFF70BD980000209000002049
:102EF00000204FF0E02108618861064800684FF427
:102F00007A71B0FBF1F0401E4FF0E02148610720DC
:102F1000086170470000002070B5FDF739F90446DC
:102F2000102C16D304F1E02090F8F05315480078E7
:102F3000854201DB012000E0002050B900BF502095
:102F400080F31188BFF34F8FBFF36F8F00BF00BFB7
:102F5000FEE70D48006800F4E0600C49096888420B
:102F600001D8012000E0002050B900BF502080F3BC
:102F70001188BFF34F8FBFF36F8F00BF00BFFEE715
:102F800070BD00007C0000200CED00E080000020FF
:102F9000024600200BE0084B53F8303033B9064BA3
:102FA00043F8301003EBC0035A6002E0401C0828CD
:102FB000F1D300BF70470000E80400202DE9F04184
:102FC00005460E4617462C46FFF700FF94F94400CD
:102FD000401C10B9002084F8440094F94500401CBE
:102FE00010B9002084F84500FFF71AFFA06B28B93C
:102FF0003A46314604F1240000F062F82046FFF71B
:1030000094FDBDE8F081000070B504460025D4B100
:103010001248006808B9012000E0002050B900BF44
:10302000502080F31188BFF34F8FBFF36F8F00BF25
:1030300000BFFEE700F0C0F800212046FFF7CEF801
:1030400000F070FE05463DB94FF08050044908601D
:10305000BFF34F8FBFF36F8F70BD00006000002083
:1030600004ED00E003490968016003490968416013
:1030700070470000500000203C0000200120014962
:10308000086070474C00002070B504460D4654B9E6
:1030900000BF502080F31188BFF34F8FBFF36F8FB5
:1030A00000BF00BFFEE70548016818312046FFF762
:1030B00067FE01212846FFF791F870BD2800002027
:1030C00070B505460E46144655B900BF502080F332
:1030D0001188BFF34F8FBFF36F8F00BF00BFFEE7B4
:1030E0000648016818312846FFF764FE0CB14FF01E
:1030F000FF3621463046FFF771F870BD28000020EA
:1031000010B586B000200590049003AA04A905A874
:10311000FFF70EFE0022DDE904101346CDE9002181
:1031200002901EA11F48039A00F04AFC1E49086045
:103130000846006808B1012400E00024012C02D1F7
:1031400000F072FE0446012C15D100BF502080F320
:103150001188BFF34F8FBFF36F8F00BF4FF0FF3069
:1031600012490860012012490860002011490860D6
:1031700000F072F810E0601C08B1012000E00020AF
:1031800050B900BF502080F31188BFF34F8FBFF3B9
:103190006F8F00BF00BFFEE706B010BD49444C452D
:1031A00000000000692500085C0000205800002095
:1031B000440000203C00002002480068401C0149F7
:1031C00008607047600000201E48006818B10120A8
:1031D0001D49086034E000201B4908601B48016855
:1031E0000CE051B900BF502080F31188BFF34F8F1E
:1031F000BFF36F8F00BF00BFFEE7491E01EB8100E8
:10320000134A52F8200008B9012000E000200028ED
:10321000E7D101EB81020E4B03EB8200426852685A
:10322000426000F108024368934202D1426852684A
:1032300042604268D268074B1A600448016000BFD0
:1032400070470000600000204C000020400000207B
:1032500028050020280000201CB5384908460078C1
:103260000190FF200A4610700846007800909DF8F3
:10327000000000F0F0009DF80020904201D10120F4
:1032800000E0002050B900BF502080F31188BFF348
:103290004F8FBFF36F8F00BF00BFFEE79DF80000A8
:1032A00000F05000264A10700720264A106009E0FE
:1032B00024480068401E234A10609DF80000400624
:1032C000000E00909DF8000000F080008028EFD0F4
:1032D0001C480068C0F10700042801D1012000E06B
:1032E000002050B900BF502080F31188BFF34F8FEA
:1032F000BFF36F8F00BF00BFFEE7124800680002F7
:10330000104A10601046008800F4E06010600B4A1C
:10331000019810700C48006840F470000A49086079
:103320000846006840F070400860FFF7E1FD0020AB
:1033300006490860FCF7F6FE00201CBD00E400E032
:103340007C0000208000002020ED00E078000020BC
:103350002DE9F84380460E4617461D46DDF82090BD
:10336000B8F1000F01D0012000E0002050B900BFEB
:10337000502080F31188BFF34F8FBFF36F8F00BFD2
:1033800000BFFEE70DB1012000E0002050B900BFF2
:10339000502080F31188BFF34F8FBFF36F8F00BFB2
:1033A00000BFFEE707B10EB1012000E0002050B9D8
:1033B00000BF502080F31188BFF34F8FBFF36F8F92
:1033C00000BF00BFFEE707B90EB9012000E00020F2
:1033D00050B900BF502080F31188BFF34F8FBFF367
:1033E0006F8F00BF00BFFEE750200090009850286C
:1033F00001D1012000E0002050B900BF502080F32F
:103400001188BFF34F8FBFF36F8F00BF00BFFEE780
:103410002C464CB1012084F846004B463A463146D2
:1034200040460094FFF7B4F82046BDE8F88300005A
:1034300070B505460E462C4654B900BF502080F3A7
:103440001188BFF34F8FBFF36F8F00BF00BFFEE740
:10345000FFF7BCFCD4E90F12206801FB020060609A
:103460000020A0632068A060E06B401E226C2168F1
:1034700000FB0210E060FF2084F8440084F845005F
:103480009EB9206908B9012000E00020A8B904F124
:10349000100000F0FBFB80B14FF08050094908603C
:1034A000BFF34F8FBFF36F8F07E004F11000FFF7FA
:1034B00057FC04F12400FFF753FCFFF7B1FC012097
:1034C00070BD000004ED00E02DE9FF4383B0064627
:1034D00088461D464FF00009344654B900BF5020BD
:1034E00080F31188BFF34F8FBFF36F8F00BF00BF12
:1034F000FEE7B8F1000F01D1206C08B9012000E00F
:10350000002050B900BF502080F31188BFF34F8FC7
:10351000BFF36F8F00BF00BFFEE7022D02D1E06B4B
:10352000012801D1012000E0002050B900BF502047
:1035300080F31188BFF34F8FBFF36F8F00BF00BFC1
:10354000FEE700F099FA08B9059808B9012000E0F3
:10355000002050B900BF502080F31188BFF34F8F77
:10356000BFF36F8F00BF00BFFEE700BFFFF72EFC69
:10357000A06BE16B884201D3022D28D12A46414637
:103580002046FEF738FF0746606A08B9012000E0D0
:10359000002068B904F1240000F078FB88B14FF0F6
:1035A000805032490860BFF34F8FBFF36F8F08E040
:1035B0003FB14FF080502D490860BFF34F8FBFF3EC
:1035C0006F8FFFF72DFC012007B0BDE8F083059851
:1035D00018B9FFF725FC0020F6E7B9F1000F04D178
:1035E00001A8FFF73FFD4FF00109FFF719FCFFF7B6
:1035F000E3FDFFF7EBFB94F94400401C10B90020F9
:1036000084F8440094F94500401C10B9002084F867
:103610004500FFF705FC05A901A800F059F9F0B92C
:103620002046FFF7C6F8A0B104F110000599FFF796
:103630002BFD2046FFF779FA00F074FB002895D1A6
:103640004FF0805009490860BFF34F8FBFF36F8F71
:103650008CE72046FFF769FA00F064FB86E7204616
:10366000FFF763FA00F05EFB0020ADE704ED00E039
:103670002DE9F05F07468A4690461E463C4654B9FF
:1036800000BF502080F31188BFF34F8FBFF36F8FBF
:1036900000BF00BFFEE7BAF1000F01D1206C08B9EE
:1036A000012000E0002050B900BF502080F31188B5
:1036B000BFF34F8FBFF36F8F00BF00BFFEE7022E37
:1036C00002D1E06B012801D1012000E0002050B9B7
:1036D00000BF502080F31188BFF34F8FBFF36F8F6F
:1036E00000BF00BFFEE7FFF717FC00BF5021EFF35C
:1036F000118081F31188BFF34F8FBFF36F8F00BF2D
:103700000546A06BE16B884201D3022E23D194F9C8
:1037100045B0324651462046FEF76DFE0BF10100E2
:1037200088B9606A08B9012000E0002080B904F17E
:10373000240000F0ABFA58B1B8F1000F08D0012016
:10374000C8F8000004E00BF1010040B284F8450025
:103750004FF0010901E04FF0000900BF85F3118827
:1037600000BF4846BDE8F09F2DE9F74183B005460C
:103770000E464FF000082C4654B900BF502080F38D
:103780001188BFF34F8FBFF36F8F00BF00BFFEE7FD
:103790000EB9206C08B9012000E0002050B900BF2C
:1037A000502080F31188BFF34F8FBFF36F8F00BF9E
:1037B00000BFFEE700F060F908B9059808B90120DC
:1037C00000E0002050B900BF502080F31188BFF303
:1037D0004F8FBFF36F8F00BF00BFFEE700BFFFF743
:1037E000F5FAA76BF7B131462046FEF7EFFD781EDC
:1037F000A063206908B9012000E0002060B904F14D
:10380000100000F043FA38B14FF080502F490860A3
:10381000BFF34F8FBFF36F8FFFF702FB012006B09E
:10382000BDE8F081059818B9FFF7FAFA0020F6E72D
:10383000B8F1000F04D101A8FFF714FC4FF0010804
:10384000FFF7EEFAFFF7B8FCFFF7C0FA94F944006F
:10385000401C10B9002084F8440094F94500401C35
:1038600010B9002084F84500FFF7DAFA05A901A88D
:1038700000F02EF8F0B92046FEF78EFFA0B104F15B
:1038800024000599FFF700FC2046FFF74EF900F0F1
:1038900049FA0028A3D14FF080500C490860BFF3CB
:1038A0004F8FBFF36F8F9AE72046FFF73EF900F086
:1038B00039FA94E72046FFF738F900F033FA20464A
:1038C000FEF76AFF00288AD00020A8E704ED00E098
:1038D00070B505460C4655B900BF502080F31188DD
:1038E000BFF34F8FBFF36F8F00BF00BFFEE754B928
:1038F00000BF502080F31188BFF34F8FBFF36F8F4D
:1039000000BF00BFFEE7FFF761FA1248026868686F
:10391000131A2068401C08B9002617E00E492868D1
:103920000968884204D06868904201D801260DE0F9
:103930002068984207D92068C01A20602846FFF7FF
:1039400091FB002602E0002020600126FFF768FAC4
:10395000304670BD3C000020500000202DE9FF4F94
:1039600085B0804689461746DDE912ABB800FFF7FF
:103970001BF9064656B15C20FFF716F904460CB158
:10398000266304E03046FFF769FA00E000248CB1BA
:10399000002084F85900CDE900ABCDE902403A4659
:1039A00049464046089BFEF708FE2046FEF754FCB9
:1039B000012501E04FF0FF35284609B0BDE8F08F42
:1039C0002DE9F04F85B00746884691469A46DDE9D5
:1039D0000EB6109C0EB1012000E0002050B900BFCF
:1039E000502080F31188BFF34F8FBFF36F8F00BF5C
:1039F00000BFFEE70CB1012000E0002050B900BF7D
:103A0000502080F31188BFF34F8FBFF36F8F00BF3B
:103A100000BFFEE75C20039003985C2801D10120E1
:103A200000E0002050B900BF502080F31188BFF3A0
:103A30004F8FBFF36F8F00BF00BFFEE7B4B1AEB1D1
:103A400025462C462E63022085F85900002004A943
:103A500053464A46CDE900B1CDE9025041463846C9
:103A6000FEF7ABFD2846FEF7F7FB01E000200490CF
:103A7000049805B0BDE8F08F0549096809B901202F
:103A800005E00449096809B9022000E000207047F8
:103A900044000020600000200149086870470000D1
:103AA0003C0000202DE9F0414FF000084348006839
:103AB000002876D142480068451C4148056015BB86
:103AC00040480068006808B9012000E0002050B9B3
:103AD00000BF502080F31188BFF34F8FBFF36F8F6B
:103AE00000BF00BFFEE73748076837480068354920
:103AF00008603548076035480068401C3349086055
:103B0000FEF766FF00BF3248006885423BD300BF26
:103B10002C480068006808B9012000E0002020B1AE
:103B20004FF0FF302A4908602CE026480068C06842
:103B3000C4686668B54202D22548066022E0201DAE
:103B4000FFF7E2F8A06A18B104F11800FFF7DCF8FB
:103B50002049E06A0968884202D91E49E06A086083
:103B6000E16A01EB81011C4A02EB8100211DFFF794
:103B700021F91A49E06A0968C96A8842C8D34FF036
:103B80000108C5E700BF15480068C06A00EB800067
:103B9000114951F82000012801D94FF0010805E032
:103BA000FFE70F480068401C0D4908600D48006899
:103BB00008B14FF001084046BDE8F08160000020E8
:103BC0003C0000202C00002030000020500000208D
:103BD0005800002040000020280500202800002078
:103BE000480000204C00002070B505462C460026F9
:103BF000002D43D022480068844201D1012000E01A
:103C0000002050B900BF502080F31188BFF34F8FC0
:103C1000BFF36F8F00BF00BFFEE7206D50B900BF3C
:103C2000502080F31188BFF34F8FBFF36F8F00BF19
:103C300000BFFEE7206D401E2065E16CE06A88420F
:103C40001CD0206DD0B9201DFFF75EF8E06CE0625B
:103C5000E06AC0F13800A0610A49E06A0968884258
:103C600002D90849E06A0860E16A01EB8101064A6D
:103C700002EB8100211DFFF79DF80126304670BD43
:103C800028000020400000202805002070B50646CE
:103C9000F068C46854B900BF502080F31188BFF3A6
:103CA0004F8FBFF36F8F00BF00BFFEE704F1180016
:103CB000FFF72AF815480068A0B9201DFFF724F87F
:103CC0001349E06A0968884202D91149E06A08602C
:103CD000E16A01EB81010F4A02EB8100211DFFF730
:103CE00069F804E004F118010B48FFF763F80B4989
:103CF000E06A0968C96A884204D901250120084997
:103D0000086000E00025284670BD0000600000202B
:103D10004000002028050020B009002028000020D5
:103D20004C00002070B5002400263648006850B9C9
:103D300000BF502080F31188BFF34F8FBFF36F8F08
:103D400000BF00BFFEE7FFF741F82E480068401EA5
:103D50002C4908600846006800284ED12A480068AF
:103D600000284AD023E02948C068C46804F118003C
:103D7000FEF7CAFF201DFEF7C7FF2549E06A096864
:103D8000884202D92249E06A0860E16A01EB8101B8
:103D9000204A02EB8100211DFFF70CF81E49E06A62
:103DA0000968C96A884202D301201C490860174883
:103DB000006808B9012000E000200028D3D00CB131
:103DC000FEF706FE1648056865B100BFFFF76AFEFC
:103DD00010B10120114908606D1E002DF6D10020A0
:103DE0000F4908600D48006838B1012630070D49B9
:103DF0000860BFF34F8FBFF36F8FFFF711F83046A6
:103E000070BD00006000002038000020B0090020D4
:103E10004000002028050020280000204C00002041
:103E20004800002004ED00E010B586B00024FEF745
:103E30006FFA16480068D0B100200590049003AADC
:103E400004A905A8FEF780FF0222DDE90410002383
:103E5000CDE9002102900EA10F48039AFFF7B0FDB3
:103E60000E4908600846006800B1012400BF54B93B
:103E700000BF502080F31188BFF34F8FBFF36F8FC7
:103E800000BF00BFFEE7204606B010BD6C0000205A
:103E9000546D722053766300112B000870000020CF
:103EA0002DE9FF4704460D4616461F46DDF83080D3
:103EB0004FF0000954B900BF502080F31188BFF3C0
:103EC0004F8FBFF36F8F00BF00BFFEE7144800683D
:103ED00010B3009501960294062D15DAFFF7CCFD7C
:103EE000022808D10023424669460D480068FFF7C2
:103EF000EBFA814610E000231A466946084800683C
:103F0000FFF7E2FA814607E000233A466946044893
:103F10000068FFF7ADFB8146484604B0BDE8F08776
:103F20006C000020483F0008000000000000000076
:103F30000000000000000000000200001800000067
:103F4000000000000000000064656661756C745438
:103F500061736B00743F000800000020E400000063
:103F60007617000858400008E4000020DC2000001C
:103F70008617000800A24A040000000000000000AC
:103F800001020304060708090000000001020304FF
:103F900001020304060708090204060800000000E5
:103FA0000000000000000000000000000000000011
:103FB0000000000000000000000000000000000001
:103FC00000000000000000000000000000000000F1
:103FD00000000000000000000000000000000000E1
:103FE000000000000000000000000000AAAAAAAA29
:103FF00000000000000000000000000000000000C1
:1040000000000000000000000000000000000000B0
:10401000000000000000000001017461736B3100BA
:104020000000000000000000000002017461736BDA
:104030003200000000000000000000000301746175
:10404000736B33000000000000000000000000005F
:08405000010000000000000067
:04000005080000ED02
:00000001FF
