:020000040800F2
:100000008021002099010008BD0900083709000877
:10001000B909000845070008131500080000000092
:1000200000000000000000000000000001010008C6
:100030007307000800000000450100085D1100087A
:10004000B3010008B3010008B3010008B3010008C0
:10005000B3010008B3010008B3010008B3010008B0
:10006000B3010008B3010008B3010008B3010008A0
:10007000B3010008B3010008B3010008B301000890
:10008000B3010008B3010008B3010008B301000880
:10009000B3010008B3010008B3010008B301000870
:1000A000B3010008B3010008B3010008B301000860
:1000B000B3010008B3010008B3010008B301000850
:1000C000B3010008B3010008B3010008B301000840
:1000D000B3010008B3010008B3010008951200083D
:1000E000B3010008B3010008B3010008DFF80CD029
:1000F00000F088FA00480047311F000880210020E6
:10010000224B19680868B0E8F00F80F30988BFF344
:100110006F8F4FF0000080F311884EF00D0E704786
:100120000000000006480068006880F3088862B696
:1001300061B6BFF34F8FBFF36F8F00DF00BF00BF0B
:1001400008ED00E0EFF30980BFF36F8F0F4B1A68E3
:1001500020E9F00F106008B54FF0500080F31188CF
:10016000BFF34F8FBFF36F8F02F070FF4FF00000AF
:1001700080F31188BDE8084019680868B0E8F00FFE
:1001800080F30988BFF36F8F704700BF28000020FD
:10019000EFF3058070470000064880470648004797
:1001A000FEE7FEE7FEE7FEE7FEE7FEE7FEE7FEE727
:1001B000FEE7FEE791110008ED00000840EA0103A8
:1001C0009B0703D009E008C9121F08C0042AFAD20D
:1001D00003E011F8013B00F8013B521EF9D27047D1
:1001E000D2B201E000F8012B491EFBD27047002279
:1001F000F6E710B513460A4604461946FFF7F0FF26
:10020000204610BD30B50B460146002020220124B7
:1002100009E021FA02F59D4205D303FA02F5491BD4
:1002200004FA02F52844151EA2F10102F1DC30BDEA
:100230002DE9F05F0546002092469B46884606461B
:10024000814640241BE0284641464746224600F0AE
:10025000FAF953465A46C01A914110D3114618462E
:10026000224600F0E1F92D1A67EB01084F462246BD
:100270000120002100F0D8F917EB00094E41201EA3
:10028000A4F10104DFDC484631462A464346BDE876
:10029000F09F2DE9FE4F804681EA0300C00F0C4617
:1002A000009021F0004123F00045B8EB0200A94185
:1002B00005D24046214690461C460B46024623F096
:1002C0000040104347D0270DC7F30A00C3F30A517B
:1002D0000290401A019040286BDAC3F3130040F4F7
:1002E000801B0098924620B10023D2EB030A63EBF7
:1002F0000B0B01985946C0F14002504600F094F9AA
:1003000006460D4650465946019A00F0ACF910EBEE
:1003100008006141002487EA115284EAE7731A4316
:1003200040D0009A62B3019A012A4FEA075215DCC5
:10033000001B61EB02014FF0004202EA0752CDE9D7
:100340000042001C41F5801132462B4600F0ACF90A
:1003500003B0BDE8F08F40462146F9E7001B61EB92
:100360000201001C41F5801300185B412018A2F522
:10037000001747EB030140EAD570B6196D4111E053
:100380006D084FEA360645EAC0754FEA0752001B72
:1003900061EB0201001C41F5801149084FEA300071
:1003A0000019514132462B4603B0BDE8F04F00F032
:1003B0006CB90098012240000023D0EB020263EBED
:1003C000E073009821464FEAE074B8EB000061EB5F
:1003D0000401E9E783F000435BE781F0004158E75F
:1003E0002DE9FE4F81EA030404F0004421F00041AE
:1003F00000944FF0000B23F0004350EA01045ED05C
:1004000052EA03045BD0C3F30A54C1F30A552C44E7
:10041000A4F2F3340194A0FB0254C1F3130141F49C
:100420008011C3F3130343F4801301FB024400FB68
:10043000034E840A970A44EA815447EA8357A4FB8F
:10044000076802958D0A05FB07854FEA932C04FB8C
:100450000C542705029D4FEA065847EA1637B5EBBC
:1004600008056EEB070C870E920E47EA811742EAE9
:100470008312A7FB0201B6EB0B0164EB00042B0D0A
:1004800043EA0C335E1844EB1C50DA465146E7FB56
:100490000201C5F313044FEA0B3343EA14534FEA46
:1004A0000432019C43EA0603A4F10C040294009C6C
:1004B000CDE900B400F0F8F803B0BDE8F08F0020FB
:1004C0000146F9E72DE9F04D81EA030404F0004B01
:1004D00021F0004514464FF0000A23F0004150EA95
:1004E000050220D054EA01021DD0C5F30A57024686
:1004F000C5F31303C1F31300C1F30A5640F480158A
:1005000043F48013A7EB0608101BD64608F2FD380B
:1005100073EB050002D308F1010801E092185B417A
:10052000B8F1000F03DA00200146BDE8F08D00208D
:100530004FF48011064684460EE0171B73EB050747
:1005400005D3121B63EB050306434CEA010C490873
:100550004FEA300092185B4150EA0107EDD152EAB0
:10056000030012D082EA040083EA0501084305D0A3
:10057000101BAB4106D20122002306E000224FF0FF
:10058000004302E06FF0010253101AEB06004CEB3F
:10059000085110EB0A0041EB0B01BDE8F04D00F0F3
:1005A00074B8C1F30A52C1F3130140F2FF3341F4AE
:1005B00080119A4202DA00200146704740F233432C
:1005C0009A42A2F2334202DC524200F03CB800F000
:1005D0002BB8000030B5041E71F1000404DB4FF0AD
:1005E0000044404264EB0101141E73F1000405DB7A
:1005F0001C464FF00043524263EB0403994208BF8C
:10060000904230BD064C074D06E0E06840F0010323
:1006100094E8070098471034AC42F6D3FFF76AFD20
:10062000A83D0008C83D0008202A04DB203A00FA53
:1006300002F1002070479140C2F1200320FA03F339
:10064000194390407047202A04DB203A21FA02F037
:100650000021704721FA02F3D040C2F120029140FC
:10066000084319467047202A06DBCB17203A41FA87
:1006700002F043EAE07306E041FA02F3D040C2F12F
:100680002002914008431946704710B5141E73F1BB
:10069000000408DA401C41F1000192185B411A4342
:1006A00001D120F0010010BD2DE9F04D92469B468E
:1006B00011B1B1FA81F202E0B0FA80F22032904634
:1006C000FFF7B2FF04460F4640EA0A0041EA0B0179
:1006D00053465A46084313D0114653EA010019D035
:1006E000C8F140025046FFF7AEFF05460E465046A1
:1006F00059464246FFF798FF084305D0012004E021
:1007000020463946BDE8F08D0020054346EAE076F4
:100710002C4337430A986305E40AA0EB0800002243
:10072000FD0A44EA47540A3002D500200146E9E7B1
:10073000010510196941DDE9084500196941BDE865
:10074000F04DA2E700BFFEE770B505460C4628460F
:1007500000F060FB064626EA0401284600F0DCFEB5
:1007600070BD10B501F09CFB00F00AFC00F0B2FA7D
:1007700010BD704710B50A490AA000F015F80848E6
:10078000B0F8000420F400400549A1F80004084630
:10079000B0F800046FF30E00A1F8000410BD0000D3
:1007A000A4000020257300000FB400B59BB01DA865
:1007B000019002A8019A1C9900F0EAFE0020019025
:1007C00002A800F013F81BB05DF814FB10B5044646
:1007D0002146054800F099FE00BF8021024800F044
:1007E000C6FD0028F9D010BD0048004070B5044691
:1007F000002504E0605DFFF7E9FF681CC5B2605D9D
:100800000028F7D170BD2DE9F041024600250026F1
:10081000002000230024002791F803C00CF00F05EE
:1008200091F803C00CF0100CBCF1000F03D091F84C
:1008300002C04CEA050591F800C0BCF1000F31D0B0
:10084000146800202BE04FF0010C0CFA00F3B1F813
:1008500000C00CEA03069E4220D183004FF00F0C2B
:100860000CFA03F7BC4305FA03FC4CEA040491F8C4
:1008700003C0BCF1280F06D14FF0010C0CFA00FCAC
:10088000C2F814C00AE091F803C0BCF1480F05D1CA
:100890004FF0010C0CFA00FCC2F810C0401C0828F4
:1008A000D1D31460B1F800C0BCF1FF0F34DD54683F
:1008B00000202EE000F1080C4FF0010808FA0CF3BC
:1008C000B1F800C00CEA03069E4221D183004FF02C
:1008D0000F0C0CFA03F7BC4305FA03FC4CEA0404C2
:1008E00091F803C0BCF1280F05D100F1080C08FAFB
:1008F0000CF8C2F8148091F803C0BCF1480F07D17E
:1009000000F1080C4FF0010808FA0CF8C2F810804A
:10091000401C0828CED35460BDE8F0810246002078
:1009200093680B400BB1012000E00020704741614B
:1009300070470161704700BFFEE710B50446412CC7
:1009400024D108210846FFF7FFFE3D21112000F0C9
:10095000E3FD8621172000F0DFFD7F21262000F037
:10096000DBFD1E212D2000F0D7FD00212C2000F002
:10097000D3FD8D212A2000F0CFFD3E212B2000F059
:10098000CBFD022001F0A4FA00F05CF810BD0000DD
:100990001CB50020182103468022CDE9001002A1D9
:1009A000044802F01DFF1CBD72633532325F746172
:1009B000736B0000FD2A000800BFFEE770470000CF
:1009C00070B5002100230F22C47804B3154C2468AD
:1009D00004F4E064C4F5E064210AC1F10403CA40F0
:1009E000447804FA03F184781440214309010E4C41
:1009F0000678A155047804F01F050124AC40057861
:100A00006D11AD0005F1E025C5F8004109E004785D
:100A100004F01F050124AC40044D0678761145F81A
:100A2000264070BD0CED00E000E400E080E100E055
:100A300002490143024A1160704700000000FA05B4
:100A40000CED00E010B5142000F0E4F9044604F0C9
:100A5000030018B90321142000F0FEFA10BDF0B510
:100A600087B00546002708210846FFF76DFE0021E4
:100A70000D2000F051FD80210E20FFF765FE932030
:100A80008DF8080020208DF8090001A802AB022291
:100A900002A900900C2000F01AF8064686B900243E
:100AA00007E002A8005D285502A8005D4740601CD1
:100AB000C4B2042CF5DB02A8005DB84200D00226C7
:100AC00080210E2000F0C8FA304607B0F0BD2DE9B5
:100AD000FE4F0646884691469A46DDF830B0022021
:100AE00002900020019000900C2E06D00E2E09D10D
:100AF000122001901020009005E077200190302016
:100B0000009000E000BF00BF019840F0800102208B
:100B100000F002FD80210420FFF716FE00210120D5
:100B200000F0FAFC80210A2000F096FA002505E08A
:100B300018F80510092000F0EFFC6D1C4D45F7D3A7
:100B40003146012000F0E8FC0C2E03D180210D205D
:100B500000F082FA4FF47A7500BF042000F05AF9D1
:100B600004466D1E35B104F0010018B9009820400C
:100B70000028F2D080210D20FFF7E6FD95B3062076
:100B800000F048F900F01B0068BB002002900198BB
:100B9000204000F0010008B1012002900C2E24D169
:100BA0000A2000F037F904460C2000F033F900F079
:100BB00007072FB1601E07EBC000CBF8000002E072
:100BC000E000CBF8000004B90124122C00DD12244F
:100BD000002505E0092000F01DF90AF805006D1C4C
:100BE000A542F7D301E00220029080210C2000F002
:100BF00033FA0021012000F08FFC0298BDE8FE8F3F
:100C000070B588B005460C4608210846FFF79CFDE4
:100C100007210D2000F080FC0321142000F01CFAB5
:100C20008DF80C5002A803AB012203A900900C2000
:100C3000FFF74DFF06464EB90298102806D19DF8E1
:100C40000C0020709DF80D00607000E00226304618
:100C500008B070BD10B501211D48FFF76AFE0120E4
:100C600001F036F901211A48FFF761FE012001F079
:100C70002FF901211648FFF75CFE012001F028F949
:100C80000F21012000F048FC00BF012000F0C2F855
:100C900000F010000028F8D1012001F019F93D21E1
:100CA000112000F039FC1E212D2000F035FC002120
:100CB0002C2000F031FC8D212A2000F02DFC3E215B
:100CC0002B2000F029FC4021152000F025FC10BD50
:100CD000000C014010B500F0B7F801210648FFF7FD
:100CE00028FE10210548FFF724FEFFF7B3FF41203F
:100CF000FFF723FE10BD0000000C0140000801407A
:100D000029B1064AD2690243044BDA6104E0034A7E
:100D1000D2698243014BDA61704700000010024043
:100D200029B1064A92690243044B9A6104E0034ADE
:100D300092698243014B9A617047000000100240A3
:100D400030B500210022002400232D4D6D6805F0F0
:100D50000C0121B1042905D0082923D105E0294D32
:100D6000056022E0274D05601FE0254D6D6805F404
:100D70007012234D6D6805F48034022505EB924214
:100D80001CB9214D554305600BE01D4D6D6805F400
:100D900000351DB11C4D5543056002E0194D55430A
:100DA000056002E0174D056000BF00BF144D6D687F
:100DB00005F0F0010909154D6B5C0568DD404560E3
:100DC0000F4D6D6805F4E061090A104D6B5C4568D4
:100DD000DD4085600A4D6D6805F46051C90A0B4D10
:100DE0006B5C4568DD40C560054D6D6805F44041AC
:100DF000890B074D6B5CC568B5FBF3F5056130BD2C
:100E00000010024000127A0000093D00140000208A
:100E10002400002070B504467E2000EA440040F023
:100E2000800510210748FFF782FD284600F07CF876
:100E300000F054F8064610210248FFF77AFD3046CC
:100E400070BD00000008014008B501210C20FFF72B
:100E500067FF1020ADF800008DF8030003208DF827
:100E6000020069461B48FFF7CEFC2020ADF80000C9
:100E700010208DF8030003208DF802006946154804
:100E8000FFF7C1FC4020ADF8000004208DF80300FE
:100E900003208DF8020069460E48FFF7B4FC0220DB
:100EA000ADF8000010208DF8030003208DF802003B
:100EB00069460948FFF7A7FC0120ADF800001020A3
:100EC0008DF8030003208DF8020069460248FFF701
:100ED0009AFC08BD00080140000C014070B50025D7
:100EE0001CE06006040E20210E48FFF720FD1420B0
:100EF00000F0EEFF40210B48FFF710FD012801D163
:100F000044F00104142000F0E3FF20210548FFF71E
:100F100010FD142000F0DCFF681CC5B2082DE0DBDA
:100F2000204670BD0008014070B50446002520E051
:100F300004F0800020B102210F48FFF7FAFC03E023
:100F400002210D48FFF7F3FC142000F0C1FF20211F
:100F50000A48FFF7ECFC142000F0BAFF20210748F4
:100F6000FFF7E7FC142000F0B3FF6006040E681CD6
:100F7000C5B2082DDCDB70BD000C0140000801404B
:100F800000B585B001218803FFF7CAFE01210420C6
:100F9000FFF7C6FE18208DF813004FF40070ADF86F
:100FA000100003208DF8120004A91948FFF72BFC4C
:100FB00048208DF813004FF48060ADF81000032036
:100FC0008DF8120004A91248FFF71DFC4FF4E13020
:100FD00000900020ADF80C000C20ADF80A000020B5
:100FE000ADF80800ADF80600ADF804006946094800
:100FF00000F01AFA012240F22551064800F0EEF9FD
:1010000000F00AF80121034800F0A5F905B000BD81
:10101000000801400038014008B525208DF8000087
:1010200001208DF803008DF801008DF8020068465C
:10103000FFF7C6FC08BD000010B504462146054870
:1010400000F063FA00BF8021024800F090F9002808
:10105000F9D010BD0038014070B505460C46284651
:10106000FFF7D8FE064646EA0401284600F054FA87
:1010700070BD10B500F002F810BD00000CB50020E6
:10108000019000903348006840F480303149086096
:1010900000BF3048006800F4003000900198401C08
:1010A0000190009818B90198B0F5A06FF1D12948C6
:1010B000006800F4003010B10120009001E0002031
:1010C00000900098012843D12348006840F01000A8
:1010D000214908600846006820F0030008600846BF
:1010E000006840F0020008601A48406819494860EA
:1010F0000846406848600846406840F480604860A0
:101100000846406820F47C1048600846406840F477
:10111000E81048600846006840F08070086000BF32
:101120000C48006800F000700028F9D009484068B9
:1011300020F00300074948600846406840F002007C
:10114000486000BF0348406800F00C000828F9D14F
:101150000CBD0000001002400020024010B500BF8E
:10116000502080F31188BFF34F8FBFF36F8F00BF04
:1011700002F0DAFB18B14FF080500449086000BF5C
:10118000002080F3118800BF10BD000004ED00E0D6
:1011900010B51348006840F0010011490860084686
:1011A0004068104908400E494860084600680E49EA
:1011B00008400B4908600846006820F48020086059
:1011C0000846406820F4FE0048604FF41F00886025
:1011D000FFF74FFF4FF000600449086010BD0000AA
:1011E000001002400000FFF8FFFFF6FE08ED00E0EF
:1011F000002202881D4B98420ED01D4B98420BD006
:10120000B0F1804F08D01B4B984205D01A4B984242
:1012100002D01A4B984204D14FF68F731A404B8874
:101220001A43174B984207D0164B984204D04FF6FA
:10123000FF431A40CB881A4302808B8883850B8832
:1012400003850A4B98420BD0094B984208D00E4BAD
:10125000984205D00D4B984202D00D4B984201D1D7
:101260000B7A03860123838270470000002C014023
:10127000003401400004004000080040000C004021
:1012800000100040001400400040014000440140B4
:101290000048014008B540F22551254800F074F897
:1012A00018B32448B0F80004C0F30E0040F2FF3138
:1012B000884215DA1E4800F023F9C2B21D48B0F882
:1012C0000004C0F30E031B48B0F80004401C194989
:1012D000B1F8001460F30E011648A0F80014C254CF
:1012E00040F22551124800F027F840F224411048FE
:1012F00000F04AF8D0B10F48B0F8000420F40040E4
:1013000000F500400B49A1F800040020B1F80014DA
:10131000C1F30E01074A5054054800880090044864
:10132000001D00880090FFF725FA00BF08BD0000EF
:1013300000480040A400002010B50022002340F621
:101340006A14A14200D100BF0A1201249440A3B242
:10135000DC43048010BD21B1828942F400528281B5
:1013600004E082894DF6FF731A408281704702467D
:101370000020B1F5007F00D100BF13880B400BB1F6
:10138000012000E00020704770B5024600240023D1
:101390000025002040F66A16B14200D100BFC1F31B
:1013A000421501F01F03012606FA03F3012D02D1B5
:1013B0009689334006E0022D02D1168A334001E0BF
:1013C000968A33400C12012606FA04F4168834403B
:1013D00013B10CB1012000E0002070BDF0B5034650
:1013E000002400260025002040F66A17B94200D1EB
:1013F00000BF1846C1F3421401F01F06012707FA87
:1014000006F5012C01D10C3004E0022C01D1103082
:1014100000E014301AB107682F43076002E0076844
:10142000AF430760F0BD00002DE9F04786B00546E8
:101430000E460024A24600BFA1460027B08900B195
:1014400000BF2F462C8A4CF6FF700440F0880443FE
:101450002C82AC894EF6F3100440B08831890843E1
:10146000718908430443AC81AC8A4FF6FF400440C5
:10147000B0890443AC8201A8FFF762FC1F48874291
:1014800002D1DDF810A001E0DDF80CA0A88900F47D
:10149000004040B10AEBCA0000EB0A103168490075
:1014A000B0FBF1F807E00AEBCA0000EB0A10316864
:1014B0008900B0FBF1F86420B8FBF0F004012009CA
:1014C000642101FB1089A88900F4004040B132205A
:1014D00000EBC900B0FBF1F000F00700044308E0A6
:1014E000322000EB09106421B0FBF1F000F00F0096
:1014F00004432C8106B0BDE8F087000000380140AD
:1015000001468888C0F308007047C1F30802828052
:10151000704700BFFEE7000070B504460D467E2010
:1015200000EA440610210748FFF701FA3046FFF7AA
:10153000FBFC2846FFF7F8FC10210248FFF7F9F9F9
:1015400070BD0000000801400FB4054B10B503A9A1
:10155000044A029800F008F910BC5DF814FB000082
:10156000211F0008A00000200FB4084B10B504A9EB
:1015700002AA039800F0F8F8044602A9002000F03F
:101580008AFC204610BC5DF814FB0000971E000882
:1015900037B514460846064B6A46214600F0E4F883
:1015A00004466946002000F076FC20463EBD00005F
:1015B000971E0008EFF311807047EFF30580704726
:1015C000EFF31080704702E008C8121F08C1002A1C
:1015D000FAD170477047002001E001C1121F002AB4
:1015E000FBD170472DE9FF5F82B00021DDE90430B7
:1015F000020DDDF840B0034318D044F61050A2F2BB
:10160000FF3242431514119801281FD0A5EB0B009F
:10161000401C5FEA000A4FF000064E4FDFF8389199
:10162000B046504615D5CAF1000413E011980124C4
:101630004AA3012801D16FEA0B010298119AC0E96F
:101640000031C0E9024206B0BDE8F09FCBF10000D6
:10165000DFE704460021404A491842EB0450CDE937
:10166000001012E0E00707D032463B4640464946AC
:10167000FEF7B6FE8046894632463B46104619467E
:10168000FEF7AEFE06460F466410002CEAD1DDE9F7
:101690000401DDE90023BAF1000F06DAFEF7A0FE2F
:1016A00042464B46FEF79CFE05E0FEF70BFF424626
:1016B0004B46FEF707FF04460E460022284BFEF776
:1016C00089FF03D84FF0FF30014607E00022254B89
:1016D00020463146FEF7DDFDFEF763FF102409E0EA
:1016E000002C0ADB0A220023FEF7A2FD039B303206
:1016F0001A55641E50EA0102F2D1641C039AC4F127
:1017000011031444119A012A03D0012208430DD178
:101710000AE0084304D000204FF0110B119072E74B
:10172000A3EB0B056D1E0DE05B4504DD4FF00002E1
:1017300005F1010504E003DA4FF00002A5F101050F
:10174000002AECD002981199C0E90231C0E90045A5
:1017500079E70000000014400000F03F3000000076
:101760000000F0430000E03F2DE9FF4F95B09B469D
:101770008946064600250FE2252877D10024274612
:10178000F84A0121059400E0044316F8013F203B8C
:1017900001FA03F01042F7D130782A2811D06FF007
:1017A0002F033078A0F13002092A16D8059A44F0A8
:1017B000020402EB820203EB42021044761C059005
:1017C000EFE759F8042B0592002A03DA504244F45B
:1017D0000054059044F00204761C30782E2816D16F
:1017E00016F8010F44F004042A280DD06FF02F02E0
:1017F0003078A0F13003092B09D807EB870302EBFF
:101800004303C718761CF3E759F8047B761C30783D
:101810006C280FD006DC4C2817D068280DD06A2819
:1018200014D104E0742810D07A280FD10DE044F4CC
:1018300000140AE044F4801401E044F44014727887
:10184000824202D104F58014761C761C307866281A
:101850000BD013DC582877D009DC002875D0452838
:10186000F6D04628F4D047281AD19DE118E0632825
:1018700035D0642879D0652812D195E1702873D0CD
:1018800008DC6728F1D069286FD06E280DD06F284A
:1018900006D1B5E073282CD0752875D0782874D07F
:1018A0005A46179990476D1C75E1C4F302500228FF
:1018B00009D003280DD0D9F8001004280DD00D60F0
:1018C00009F1040967E1D9F80010EA17C1E90052EB
:1018D000F6E7D9F800100D80F2E70D70F0E719F87F
:1018E000041B8DF8001000208DF80100EA4601204D
:1018F00003E059F804AB4FF0FF3061074FF00001EF
:1019000002D40DE008F101018846B9420FDA8045A2
:10191000F8DB1AF808100029F4D108E008F10101F9
:1019200088468142FADB1AF808100029F6D105989A
:101930005B46A0EB080721463846179A00F094FA58
:10194000284400EB080507E04DE029E10DE01AF816
:10195000010B5A4617999047B8F10108F7D25B4638
:1019600021463846179A13E142E00A220092C4F356
:1019700002524FF0000A022A08D059F804CB032A79
:101980004FEAEC710AD00DE029E02AE009F10701E5
:1019900021F00702F2E802C1914609E00FFA8CFC3F
:1019A0004FEAEC71042A03D14FFA8CFC4FEAEC7138
:1019B000002907DA0A460021DCF1000C61EB020184
:1019C0002D2202E0220504D52B228DF804200122CD
:1019D00003E0E20701D02022F7E7904659E00A2110
:1019E00002E010220DE010214FF0000A00910BE000
:1019F00010224FF0000A44F004040827009203E08C
:101A000008224FF0000A0092C4F30252022A05D0C5
:101A100059F804CB0021032A08D009E009F1070195
:101A200021F00702F2E802C1914605E01FFA8CFCA2
:101A3000042A01D10CF0FF0C4FF00008220728D532
:101A4000702806D0009B83F0100353EA0A0305D0E8
:101A50000EE040228DF80420012208E05CEA010239
:101A600006D030228DF804208DF805000222904621
:101A7000009B83F0080353EA0A030AD15CEA0102DF
:101A800001D1620705D530228DF804204FF00108FE
:101A90007F1E582804D034A003900EA802900DE0B9
:101AA00036A0F9E753466046009AFEF7C1FB84462C
:101AB0000398825C0298401E029002705CEA01006A
:101AC000F0D1029806A9081A00F1200A600702D591
:101AD00024F4803400E00127574502DDA7EB0A001B
:101AE00000E0002000EB0A01009005984144401AF4
:101AF0000590E00306D45B462146179A059800F04E
:101B0000B3F90544002706E001A85A46C05D1799BD
:101B100090476D1C7F1C4745F6DBE0030CD55B4608
:101B20002146179A059800F09FF9054404E03020FB
:101B30005A46179990476D1C0099481E009000293D
:101B4000F5DC08E0029802995A460078491C029197
:101B5000179990476D1CBAF10001AAF1010AF1DC56
:101B600065E1000009280100303132333435363761
:101B700038396162636465660000000030313233D9
:101B80003435363738394142434445460000000079
:101B900000F058F90544761C307800287FF4ECAD4D
:101BA00019B02846BDE8F08F620700D4062709F176
:101BB000070222F0070CFCE80223E14603F000488C
:101BC0005FEA080C02D00FF2702C0DE05FEA045CB3
:101BD00002D50FF2682C07E05FEAC47C02D00FF256
:101BE000602C01E0AFF2700C4FF0FF3823F000439F
:101BF000CDF850C065280CD006DC452809D0462811
:101C00001DD047283DD13DE0662818D067287ED1F9
:101C100038E00021112F01DB112000E0781CCDE914
:101C2000000106A90EA8FFF7DDFCDDE90F010E9A01
:101C300003910021009207F1010A04914DE04FF059
:101C400000400097CDE9011006A90EA8FFF7CAFCD5
:101C5000DDE90F0203920E9B11990022DDF80CA022
:101C60000093049211B9791C00EB010AB7EB0A004A
:101C700004D4C0F1FF3007F1010A0490AAEB070079
:101C8000019044E0012F00DA01270021112F01DD2E
:101C9000112000E03846CDE9000106A90EA8FFF7A3
:101CA000A1FCDDE90F010E9A03910021049100923D
:101CB000BA4621070CD40399514500DA8A46BAF195
:101CC000010F05DD009AAAF10101515C302908D00D
:101CD000B84202DA10F1040F06DA0121CDE9011051
:101CE00015E0AAF10101E9E7002805DC04990144A7
:101CF0000491AAEB000102E0411C514500DD8A4637
:101D00000499401A401C01904FF0004002902007B7
:101D100004D40198504501DBCDF8048000208DF8F3
:101D20004F0002980DF14F07B0F1004F25D02B2046
:101D30000E9002984FF0020800280CDA4042029000
:101D40002D200E9007E00A210298FEF75BFA303151
:101D5000029007F8011DB8F10001A8F10108F2DCBA
:101D600002980028EFD1791E0E980870307800F0A4
:101D7000200040F0450007F8020D12A8C01B00F13A
:101D800007081498007800B1012000EB0A010198BF
:101D900001EBE07105984144401A401E0590E003B4
:101DA00006D45B462146179A059800F05DF8054475
:101DB0001498007818B15A46179990476D1CE003A3
:101DC00024D55B462146179A059800F04DF8054446
:101DD0001CE00498002807DBDDE90301884203DDED
:101DE0000098405C179901E0179930205A469047B7
:101DF000049805F10105401C04900198401E0190D3
:101E000004D12E205A46179990476D1CBAF1000153
:101E1000AAF1010ADDDC05E017F8010B5A46179913
:101E200090476D1CB8F10001A8F10108F4DC5B4695
:101E30002146179A0598ABE62D0000002B00000004
:101E4000200000002DE9F041044600251E461746FB
:101E5000880404D405E039462020B0476D1C641E78
:101E6000F9D52846BDE8F0812DE9F041044600256A
:101E70001E469046C80301D5302700E0202788047D
:101E800004D505E041463846B0476D1C641EF9D5BF
:101E90002846BDE8F0810A68531C0B60107070473B
:101EA0000EB501210420FEF72BFF4720ADF80000FE
:101EB0000120ADF804001020ADF802000020ADF8BC
:101EC000060069460148FFF793F90EBD000800407F
:101ED000411E124A118011492439098841F001013B
:101EE0000E4A243A118000BF0C491439098801F0C8
:101EF00001010029F8D00949243909884FF6FE72FA
:101F00001140064A243A118004491439098821F005
:101F10000101024A143A1180704700002408004071
:101F200070B504460D46E0B2FFF786F8204670BD56
:101F3000FEF717FC4FF44070FEF77AFD00F006F84C
:101F4000FEF726FD00F022F800BFFEE710B5FFF710
:101F500034FB48B9FFF734FB30B90B48006802285E
:101F600005D1FFF727FB10B16FF0050409E0064823
:101F7000006820B9012004490860002401E04FF006
:101F8000FF34204610BD00009C00002010B5FFF774
:101F900014FB48B9FFF714FB30B90C48006802285D
:101FA00005D1FFF707FB10B16FF005040CE00748FF
:101FB0000068012806D102200449086000F0E2FF11
:101FC000002401E04FF0FF34204610BD9C000020AB
:101FD0002DE9F04105460E46164807681648006888
:101FE000001D00F0D3FD681C38B936B112480168F5
:101FF000091D124800F020FE1AE07C190E48006806
:102000004460BC4207D20C480168091D0C480068B6
:1020100000F0F8FD0CE008480168091D0948006857
:1020200000F0F0FD08480068844201D206480460D0
:10203000BDE8F0813C000020280000209809002025
:10204000300000202C0000205800002010B504466D
:1020500000F0FEFD24480068401C23490860234826
:10206000006840B9214804600846006801280DD185
:1020700000F0F8F90AE01E48006838B91B4800680B
:10208000C06AE16A884201D81848046019480068AB
:10209000401C184908600846006860641649E06AF8
:1020A0000968884202D91449E06A0860E16A01EBD4
:1020B0008101124A02EB8100211D00F0BDFD00F0FC
:1020C000F1FD0B48006868B108480068C06AE16A21
:1020D000884207D24FF0805009490860BFF34F8F04
:1020E000BFF36F8F10BD00003800002028000020D3
:1020F000440000205400002040000020E80400209C
:1021000004ED00E008B500F0A3FD12480068E8B94E
:10211000114800F067FD114800F064FD0E481049B9
:1021200008600E480F49086000200F4B0F4A10212D
:1021300000900A2001F04EF8064908600846006841
:1021400020B10BA10348006800F064FE00F0AAFD76
:1021500008BD00006C000020AC090020C009002070
:102160006400002068000020D4090020240A002018
:10217000546D72510000000010B516E000F068FDCB
:102180000C48C068C468201D00F000FD0A480068C3
:10219000401E0949086009480068401E0749086058
:1021A00000F080FD204600F05EF80448006800283A
:1021B000E4D110BD84090020380000203400002044
:1021C00070B504460D46206C70B1216CE06808447F
:1021D000E0606168E068884201D32068E0602846DA
:1021E000226CE168FDF7EAFF70BD2DE9F04104467D
:1021F0000F4615464FF00008A66B206C40B92068CA
:1022000060BB606801F032FC80460020606025E021
:102210007DB93946226CA068FDF7D0FF216CA0681B
:102220000844A060D4E90110884217D32068A06058
:1022300014E03946226CE068FDF7C0FF216CE068CD
:10224000401AE0602168E068884203D2216C60682F
:10225000401AE060022D01D106B1761E701CA06309
:102260004046BDE8F08110B5044694F8590030B9F5
:10227000206B00F035FD204600F032FD1AE094F8A6
:102280005900012803D1204600F02AFD12E094F8FD
:102290005900022801D1012000E0002050B900BF00
:1022A000502080F31188BFF34F8FBFF36F8F00BFB3
:1022B00000BFFEE710BD00000146084A1268126820
:1022C0000AB9012200E000220A600A6822B9034A22
:1022D0001268D268106800E0002070476400002097
:1022E00030B54FF44063174800F007042CB1C01D0F
:1022F00020F00700134C041B1B1B0246124C2260EB
:102300000024114D6C60D018083820F007000F4CE5
:10231000206000240D4D2D686C600C4D2D682C60E4
:102320001146441A4C60094C24680C60084D4C68F6
:102330002C60084D4C682C604FF00044064D2C601A
:1023400030BD0000C40A0020840000208C00002062
:1023500094000020900000209800002000BFFFF7AC
:102360000BFF064800680128F9D94FF08050044956
:102370000860BFF34F8FBFF36F8FF0E7E8040020D2
:1023800004ED00E02DE9F04106460D46174698465B
:10239000069C0DB9246000E02760E66325640121F6
:1023A000204600F087FF84F84C80BDE8F0812DE9DD
:1023B000F05F82460F4690469B460A9E0C9C4FEA71
:1023C0008801A522206BFDF70BFFA8F10100216B0E
:1023D00001EB800929F0070909F0070008B901207D
:1023E00000E0002050B900BF502080F31188BFF3F7
:1023F0004F8FBFF36F8F00BF00BFFEE7002507E0E0
:10240000795D04F134004155785D00B902E06D1C3E
:10241000102DF5D300BF002143200155382E00D3E5
:102420003726E662E66400202065201D00F0E7FB09
:1024300004F1180000F0E3FB2461C6F13800A0614C
:1024400064620020606584F858005A465146484648
:1024500000F042FB20600B9808B10B980460BDE8C7
:10246000F09F000010B5002407E004EB84010F4A40
:1024700002EB810000F0B6FB641C382CF5D30C484D
:1024800000F0B0FB0B4800F0ADFB0B4800F0AAFBDE
:102490000A4800F0A7FB0A4800F0A4FB04480949D9
:1024A000086004480849086010BD0000E8040020E6
:1024B000480900205C0900207009002084090020E0
:1024C000980900202C0000203000002010B50146A3
:1024D000164800E0006803688B42FBD3024643685D
:1024E00013448B4204D143684C6823444360014643
:1024F0000A464B6813440468A34211D10C4C03688C
:102500002468A34208D04B680468646823444B6085
:1025100003681B680B6005E0054B1B680B6001E05E
:1025200003680B60884200D0016010BD8400002069
:102530008C0000202DE9F04104460D4616461F464A
:102540004FF0000865602461B5420CD8F01BA1690A
:10255000884202D34FF0010811E0211D09480068AC
:1025600000F050FB0BE0BE4204D2BD4202D34FF05C
:10257000010804E0211D0448006800F043FB4046C8
:10258000BDE8F081680000206400002070B50546B9
:1025900000F05EFBA86B08B9012400E0002400F005
:1025A00081FB204670BD70B5054600F051FBA86B5D
:1025B000E96B884201D1012400E0002400F072FBA5
:1025C000204670BDF8B505460F4616480068C0683D
:1025D000C468201D00F0DAFAE06901281DD1A06965
:1025E00041192B463A462046FFF7A4FFA8B1002028
:1025F00003462A4601460090204601F093FB06461A
:1026000056B900BF502080F31188BFF34F8FBFF33E
:102610006F8F00BF00BFFEE700BF2046616A88479A
:10262000F8BD000064000020F0B587B082E0039898
:10263000002811DA04AE56B900BF502080F311888B
:10264000BFF34F8FBFF36F8F00BF00BFFEE7D6E928
:102650000020B168904700BF039800286ADB059C02
:10266000606908B9012000E0002010B9201D00F0C9
:102670008DFA02A800F0C0F8054603980A2857D240
:10268000DFE800F009050731334F0608323400BF98
:1026900000BF00BF00BF0498A269811803462A4604
:1026A0002046FFF747FFE8B12046616A8847E069A6
:1026B000012817D1002000900498A1694218002336
:1026C0001946204601F02EFB074657B900BF50209F
:1026D00080F31188BFF34F8FBFF36F8F00BF00BF30
:1026E000FEE700BF25E000BF23E000BF0498A06123
:1026F000A06908B1012000E0002050B900BF5020BF
:1027000080F31188BFF34F8FBFF36F8F00BF00BFFF
:10271000FEE7A06941192B462A462046FFF70AFF2B
:1027200007E094F82C0010B9204600F0D9FA00E038
:1027300000BF00BF002203A90448006800F056FF54
:1027400000287FF474AF07B0F0BD00006C000020DB
:10275000F8B505460C4600F071FC684600F04CF8F0
:102760000646009820BB44B9B54206D801F01CFAD1
:1027700031462846FFF726FF1CE03CB10E480068B2
:10278000006808B9012000E000200446A91B224689
:102790000A48006800F054FB01F006FA50B94FF007
:1027A000805007490860BFF34F8FBFF36F8F01E080
:1027B00001F0FAF9F8BD0000680000206C0000206C
:1027C00004ED00E00A490968096809B9012100E03F
:1027D000002121B14FF0FF31064A116006E00449A3
:1027E0000968C968C868034A4168116070470000F9
:1027F0002C0000205800002070B5044601F08EF82F
:10280000054607480068854204D200F00BF8012015
:10281000206001E00020206001480560284670BD6E
:10282000740000202DE9F84332E024480068C068B5
:10283000056822480068C068C468201D00F0A6F939
:102840002046616A8847E069012821D1A0694619BC
:10285000AE4207D966602461211D1848006800F067
:10286000D1F915E0002003462A4601460090204693
:1028700001F058FA074657B900BF502080F311887D
:10288000BFF34F8FBFF36F8F00BF00BFFEE700BFE6
:102890000A480068006808B9012000E0002000280C
:1028A000C3D00648D0F80080054800680349086096
:1028B0000348C0F80080BDE8F883000064000020F1
:1028C000680000200E480068401C08B9012000E0A4
:1028D000002050B900BF502080F31188BFF34F8F04
:1028E000BFF36F8F00BF00BFFEE700BF502080F333
:1028F0001188BFF34F8FBFF36F8F00BF00BFFEE79C
:102900007800002008B500BF6846FFF7D5FC0446F4
:1029100020460099FFF71CFFFFF786FEF4E770B52D
:10292000044600F095F994F9455010E0606A08B942
:10293000012000E0002038B904F1240001F0E8F89B
:1029400018B100F0DDFA00E003E0681E45B2002D8A
:10295000ECDC00BFFF2084F8450000F0A3F900F094
:1029600077F994F9445010E0206908B9012000E09B
:10297000002048B904F1100001F0CAF808B100F0D5
:10298000BFFA681E45B200E001E0002DECDC00BF9C
:10299000FF2084F8440000F085F970BD2DE9F04176
:1029A00004464FF0000800F049FB4648006808B9AB
:1029B000FFF796FC44480068204000286BD1D4B152
:1029C000083404F00700B0B104F00700C0F10800BB
:1029D000044404F0070008B9012000E0002050B9C9
:1029E00000BF502080F31188BFF34F8FBFF36F8F6C
:1029F00000BF00BFFEE7002C4DD034480068844281
:102A000049D8334E3046056801E02E462D68686887
:102A1000A04202D228680028F7D12A4800688542DF
:102A200039D0306800F10808286830606868001BF9
:102A3000102819D92F1907F0070008B9012000E064
:102A4000002050B900BF502080F31188BFF34F8F92
:102A5000BFF36F8F00BF00BFFEE76868001B7860A0
:102A60006C603846FFF732FD184968680968081A33
:102A7000164908600846006816490968884203D26A
:102A800012480068134908600F49686809680843DC
:102A900068600020286001F087F808F0070008B996
:102AA000012000E0002050B900BF502080F31188C1
:102AB000BFF34F8FBFF36F8F00BF00BFFEE74046ED
:102AC000BDE8F0818C0000209800002090000020DC
:102AD0008400002094000020001F4FF080730360EA
:102AE000001F21F001030360001F034B0360143833
:102AF0000260203870470000C52800088CB028E02C
:102B000003A95220FEF77CF8041E04D003A952202A
:102B1000FEF776F80446C4B90EA0FEF715FD03A82B
:102B2000FDF79DFF88B99DF80F009DF80E10CDE9C7
:102B300000109DF80D309DF80C2009A104A8FEF7A7
:102B400013FD04A90FA0FEF7FFFC4FF47A7000F00C
:102B50009DF9D5E7D1B0BFA8B3C9B9A60A00000056
:102B600054686520436172642049442069733A20A7
:102B700025303258253032582530325825303258D9
:102B80000000000025730D0A0000000001460A69DC
:102B9000D1E901309860D1E901035860506888425A
:102BA00001D188685060002008611068401E1060E4
:102BB00010687047034B0360034B0B608023136066
:102BC00070470000C416002020170020034B03604C
:102BD000034B0B604FF48073136070472019002083
:102BE0007C19002000F1080141604FF0FF31816045
:102BF00000F10801C16001610021016070470021FE
:102C00000161704710B502460B685C1C0CB9106975
:102C100007E002F1080000E04068446824689C4234
:102C2000FAD944684C604C68A160886041600A61D0
:102C30001468641C146010BD42684A6093688B601D
:102C4000936859609160086103685B1C036070477A
:102C500000BF502080F31188BFF34F8FBFF36F8FF9
:102C600000BF0E480068401C0C4908600846006818
:102C7000012812D10A480068C0B208B9012000E05A
:102C8000002050B900BF502080F31188BFF34F8F50
:102C9000BFF36F8F00BF00BFFEE7704778000020D2
:102CA00004ED00E00D48006850B900BF502080F3EB
:102CB0001188BFF34F8FBFF36F8F00BF00BFFEE7D8
:102CC00006480068401E054908600846006820B9AB
:102CD000002080F3118800BF00BF704778000020FB
:102CE00070B506463546002E3FD0083D2C461F499C
:102CF00060680968084008B1012000E0002050B970
:102D000000BF502080F31188BFF34F8FBFF36F8F48
:102D100000BF00BFFEE7206808B9012000E00020E6
:102D200050B900BF502080F31188BFF34F8FBFF31D
:102D30006F8F00BF00BFFEE70C496068096808405C
:102D400098B1206888B9094960680968884360605B
:102D500000F074F90649606809680844044908608D
:102D60002046FFF7B3FB00F01FFF70BD9800002066
:102D70009000002000204FF0E021086188610648A3
:102D800000684FF47A71B0FBF1F0401E4FF0E02183
:102D900048610720086170470000002070B5FDF70A
:102DA000F7F90446102C16D304F1E02090F8F05304
:102DB00015480078854201DB012000E0002050B971
:102DC00000BF502080F31188BFF34F8FBFF36F8F88
:102DD00000BF00BFFEE70D48006800F4E0600C494A
:102DE0000968884201D8012000E0002050B900BFE6
:102DF000502080F31188BFF34F8FBFF36F8F00BF58
:102E000000BFFEE770BD00007C0000200CED00E07C
:102E100080000020024600200BE0084B53F83030C1
:102E200033B9064B43F8301003EBC0035A6002E09D
:102E3000401C0828F1D300BF70470000A804002000
:102E40002DE9F04105460E4617462C46FFF700FFD8
:102E500094F94400401C10B9002084F8440094F90F
:102E60004500401C10B9002084F84500FFF71AFF08
:102E7000A06B28B93A46314604F1240000F062F80C
:102E80002046FFF74CFDBDE8F081000070B5044618
:102E90000025D4B11248006808B9012000E00020E4
:102EA00050B900BF502080F31188BFF34F8FBFF39C
:102EB0006F8F00BF00BFFEE700F0C0F80021204682
:102EC000FFF786F800F070FE05463DB94FF08050E0
:102ED00004490860BFF34F8FBFF36F8F70BD0000D0
:102EE0006000002004ED00E0034909680160034927
:102EF0000968416070470000500000203C0000203D
:102F000001200149086070474C00002070B504465C
:102F10000D4654B900BF502080F31188BFF34F8F86
:102F2000BFF36F8F00BF00BFFEE70548016818318F
:102F30002046FFF767FE01212846FFF749F870BDDC
:102F40002800002070B505460E46144655B900BF4E
:102F5000502080F31188BFF34F8FBFF36F8F00BFF6
:102F600000BFFEE70648016818312846FFF764FEF7
:102F70000CB14FF0FF3621463046FFF729F870BDFF
:102F80002800002010B586B000200590049003AA08
:102F900004A905A8FFF70EFE0022DDE90410134680
:102FA000CDE9002102901EA11F48039A00F04AFCBF
:102FB0001E4908600846006808B1012400E00024AA
:102FC000012C02D100F072FE0446012C15D100BF85
:102FD000502080F31188BFF34F8FBFF36F8F00BF76
:102FE0004FF0FF30124908600120124908600020AC
:102FF0001149086000F072F810E0601C08B101206F
:1030000000E0002050B900BF502080F31188BFF3CA
:103010004F8FBFF36F8F00BF00BFFEE706B010BD3C
:1030200049444C45000000005D2300085C0000207E
:1030300058000020440000203C00002002480068A6
:10304000401C014908607047600000201E4800686D
:1030500018B101201D49086034E000201B490860B8
:103060001B4801680CE051B900BF502080F3118863
:10307000BFF34F8FBFF36F8F00BF00BFFEE7491E46
:1030800001EB8100134A52F8200008B9012000E04A
:1030900000200028E7D101EB81020E4B03EB8200F8
:1030A00042685268426000F108024368934202D1CC
:1030B0004268526842604268D268074B1A6004480E
:1030C000016000BF70470000600000204C0000203D
:1030D00040000020E8040020280000201CB53849EA
:1030E000084600780190FF200A46107008460078D4
:1030F00000909DF8000000F0F0009DF80020904244
:1031000001D1012000E0002050B900BF502080F321
:103110001188BFF34F8FBFF36F8F00BF00BFFEE773
:103120009DF8000000F05000264A10700720264A43
:10313000106009E024480068401E234A10609DF892
:1031400000004006000E00909DF8000000F0800096
:103150008028EFD01C480068C0F10700042801D186
:10316000012000E0002050B900BF502080F31188FA
:10317000BFF34F8FBFF36F8F00BF00BFFEE7124852
:1031800000680002104A10601046008800F4E060F9
:1031900010600B4A019810700C48006840F47000F1
:1031A0000A4908600846006840F070400860FFF770
:1031B000E1FD002006490860FCF7B4FF00201CBDBB
:1031C00000E400E07C0000208000002020ED00E012
:1031D000780000202DE9F84380460E4617461D462C
:1031E000DDF82090B8F1000F01D0012000E00020B0
:1031F00050B900BF502080F31188BFF34F8FBFF349
:103200006F8F00BF00BFFEE70DB1012000E000207E
:1032100050B900BF502080F31188BFF34F8FBFF328
:103220006F8F00BF00BFFEE707B10EB1012000E0C5
:10323000002050B900BF502080F31188BFF34F8F9A
:10324000BFF36F8F00BF00BFFEE707B90EB90120C3
:1032500000E0002050B900BF502080F31188BFF378
:103260004F8FBFF36F8F00BF00BFFEE7502000906D
:103270000098502801D1012000E0002050B900BF83
:10328000502080F31188BFF34F8FBFF36F8F00BFC3
:1032900000BFFEE72C464CB1012084F846004B46A7
:1032A0003A46314640460094FFF76CF82046BDE8A8
:1032B000F883000070B505460E462C4654B900BF91
:1032C000502080F31188BFF34F8FBFF36F8F00BF83
:1032D00000BFFEE7FFF7BCFCD4E90F12206801FB3A
:1032E000020060600020A0632068A060E06B401EC8
:1032F000226C216800FB0210E060FF2084F844008B
:1033000084F845009EB9206908B9012000E000203A
:10331000A8B904F1100000F0FBFB80B14FF0805021
:1033200009490860BFF34F8FBFF36F8F07E004F1C7
:103330001000FFF757FC04F12400FFF753FCFFF7E0
:10334000B1FC012070BD000004ED00E02DE9FF4359
:1033500083B0064688461D464FF00009344654B9EE
:1033600000BF502080F31188BFF34F8FBFF36F8FE2
:1033700000BF00BFFEE7B8F1000F01D1206C08B913
:10338000012000E0002050B900BF502080F31188D8
:10339000BFF34F8FBFF36F8F00BF00BFFEE7022D5B
:1033A00002D1E06B012801D1012000E0002050B9DA
:1033B00000BF502080F31188BFF34F8FBFF36F8F92
:1033C00000BF00BFFEE700F099FA08B9059808B9F8
:1033D000012000E0002050B900BF502080F3118888
:1033E000BFF34F8FBFF36F8F00BF00BFFEE700BF7B
:1033F000FFF72EFCA06BE16B884201D3022D28D190
:103400002A4641462046FEF7F0FE0746606A08B9A4
:10341000012000E0002068B904F1240000F078FBEE
:1034200088B14FF0805032490860BFF34F8FBFF32F
:103430006F8F08E03FB14FF080502D490860BFF317
:103440004F8FBFF36F8FFFF72DFC012007B0BDE852
:10345000F083059818B9FFF725FC0020F6E7B9F1CD
:10346000000F04D101A8FFF73FFD4FF00109FFF75E
:1034700019FCFFF7E3FDFFF7EBFB94F94400401C58
:1034800010B9002084F8440094F94500401C10B99C
:10349000002084F84500FFF705FC05A901A800F00D
:1034A00059F9F0B92046FFF77EF8A0B104F11000F9
:1034B0000599FFF72BFD2046FFF731FA00F074FB6A
:1034C000002895D14FF0805009490860BFF34F8F15
:1034D000BFF36F8F8CE72046FFF721FA00F064FB03
:1034E00086E72046FFF71BFA00F05EFB0020ADE701
:1034F00004ED00E02DE9F05F07468A4690461E463F
:103500003C4654B900BF502080F31188BFF34F8F61
:10351000BFF36F8F00BF00BFFEE7BAF1000F01D10C
:10352000206C08B9012000E0002050B900BF5020F5
:1035300080F31188BFF34F8FBFF36F8F00BF00BFC1
:10354000FEE7022E02D1E06B012801D1012000E04C
:10355000002050B900BF502080F31188BFF34F8F77
:10356000BFF36F8F00BF00BFFEE7FFF717FC00BF80
:103570005021EFF3118081F31188BFF34F8FBFF318
:103580006F8F00BF0546A06BE16B884201D3022E0E
:1035900023D194F945B0324651462046FEF725FE28
:1035A0000BF1010088B9606A08B9012000E0002031
:1035B00080B904F1240000F0ABFA58B1B8F1000F63
:1035C00008D00120C8F8000004E00BF1010040B26F
:1035D00084F845004FF0010901E04FF0000900BFF9
:1035E00085F3118800BF4846BDE8F09F2DE9F741FB
:1035F00083B005460E464FF000082C4654B900BF74
:10360000502080F31188BFF34F8FBFF36F8F00BF3F
:1036100000BFFEE70EB9206C08B9012000E00020D1
:1036200050B900BF502080F31188BFF34F8FBFF314
:103630006F8F00BF00BFFEE700F060F908B9059882
:1036400008B9012000E0002050B900BF502080F3ED
:103650001188BFF34F8FBFF36F8F00BF00BFFEE72E
:1036600000BFFFF7F5FAA76BF7B131462046FEF72A
:10367000A7FD781EA063206908B9012000E00020A2
:1036800060B904F1100000F043FA38B14FF08050F7
:103690002F490860BFF34F8FBFF36F8FFFF702FB17
:1036A000012006B0BDE8F081059818B9FFF7FAFAD5
:1036B0000020F6E7B8F1000F04D101A8FFF714FCD1
:1036C0004FF00108FFF7EEFAFFF7B8FCFFF7C0FA7A
:1036D00094F94400401C10B9002084F8440094F987
:1036E0004500401C10B9002084F84500FFF7DAFAC5
:1036F00005A901A800F02EF8F0B92046FEF746FF14
:10370000A0B104F124000599FFF700FC2046FFF763
:1037100006F900F049FA0028A3D14FF080500C4977
:103720000860BFF34F8FBFF36F8F9AE72046FFF714
:10373000F6F800F039FA94E72046FFF7F0F800F0C9
:1037400033FA2046FEF722FF00288AD00020A8E79F
:1037500004ED00E070B505460C4655B900BF502099
:1037600080F31188BFF34F8FBFF36F8F00BF00BF8F
:10377000FEE754B900BF502080F31188BFF34F8F8C
:10378000BFF36F8F00BF00BFFEE7FFF761FA12487B
:1037900002686868131A2068401C08B9002617E000
:1037A0000E4928680968884204D06868904201D8A8
:1037B00001260DE02068984207D92068C01A2060D1
:1037C0002846FFF791FB002602E00020206001263A
:1037D000FFF768FA304670BD3C0000205000002022
:1037E0002DE9FF4F85B0804689461746DDE912ABCB
:1037F000B800FFF7D3F8064656B15C20FFF7CEF8C5
:1038000004460CB1266304E03046FFF769FA00E095
:1038100000248CB1002084F85900CDE900ABCDE93B
:1038200002403A4649464046089BFEF7C0FD204606
:10383000FEF70CFC012501E04FF0FF35284609B0EA
:10384000BDE8F08F2DE9F04F85B0074688469146D8
:103850009A46DDE90EB6109C0EB1012000E0002072
:1038600050B900BF502080F31188BFF34F8FBFF3D2
:103870006F8F00BF00BFFEE70CB1012000E0002009
:1038800050B900BF502080F31188BFF34F8FBFF3B2
:103890006F8F00BF00BFFEE75C20039003985C2899
:1038A00001D1012000E0002050B900BF502080F37A
:1038B0001188BFF34F8FBFF36F8F00BF00BFFEE7CC
:1038C000B4B1AEB125462C462E63022085F85900CE
:1038D000002004A953464A46CDE900B1CDE9025083
:1038E00041463846FEF763FD2846FEF7AFFB01E090
:1038F00000200490049805B0BDE8F08F05490968E0
:1039000009B9012005E00449096809B9022000E06D
:103910000020704744000020600000200149086832
:10392000704700003C0000202DE9F0414FF00008F6
:1039300043480068002876D142480068451C414849
:10394000056015BB40480068006808B9012000E028
:10395000002050B900BF502080F31188BFF34F8F73
:10396000BFF36F8F00BF00BFFEE7374807683748D7
:103970000068354908603548076035480068401CD4
:1039800033490860FEF71EFF00BF324800688542D9
:103990003BD300BF2C480068006808B9012000E054
:1039A000002020B14FF0FF302A4908602CE0264863
:1039B0000068C068C4686668B54202D225480660DF
:1039C00022E0201DFFF7E2F8A06A18B104F1180008
:1039D000FFF7DCF82049E06A0968884202D91E49ED
:1039E000E06A0860E16A01EB81011C4A02EB810098
:1039F000211DFFF721F91A49E06A0968C96A88425E
:103A0000C8D34FF00108C5E700BF15480068C06A79
:103A100000EB8000114951F82000012801D94FF036
:103A2000010805E0FFE70F480068401C0D490860E9
:103A30000D48006808B14FF001084046BDE8F0812C
:103A4000600000203C0000202C00002030000020FE
:103A5000500000205800002040000020E804002012
:103A600028000020480000204C00002070B50546CA
:103A70002C460026002D43D022480068844201D104
:103A8000012000E0002050B900BF502080F31188D1
:103A9000BFF34F8FBFF36F8F00BF00BFFEE7206DF6
:103AA00050B900BF502080F31188BFF34F8FBFF390
:103AB0006F8F00BF00BFFEE7206D401E2065E16CE8
:103AC000E06A88421CD0206DD0B9201DFFF75EF857
:103AD000E06CE062E06AC0F13800A0610A49E06A87
:103AE0000968884202D90849E06A0860E16A01EB86
:103AF0008101064A02EB8100211DFFF79DF8012696
:103B0000304670BD2800002040000020E80400205E
:103B100070B50646F068C46854B900BF502080F301
:103B20001188BFF34F8FBFF36F8F00BF00BFFEE759
:103B300004F11800FFF72AF815480068A0B9201D05
:103B4000FFF724F81349E06A0968884202D911494D
:103B5000E06A0860E16A01EB81010F4A02EB810033
:103B6000211DFFF769F804E004F118010B48FFF785
:103B700063F80B49E06A0968C96A884204D90125DB
:103B800001200849086000E00025284670BD0000BB
:103B90006000002040000020E804002070090020A0
:103BA000280000204C00002070B500240026364874
:103BB000006850B900BF502080F31188BFF34F8FC9
:103BC000BFF36F8F00BF00BFFEE7FFF741F82E483D
:103BD0000068401E2C4908600846006800284ED145
:103BE0002A48006800284AD023E02948C068C468F1
:103BF00004F11800FEF7CAFF201DFEF7C7FF254994
:103C0000E06A0968884202D92249E06A0860E16AEC
:103C100001EB8101204A02EB8100211DFFF70CF826
:103C20001E49E06A0968C96A884202D301201C491A
:103C300008601748006808B9012000E0002000284B
:103C4000D3D00CB1FEF7BEFD1648056865B100BFC4
:103C5000FFF76AFE10B10120114908606D1E002DAA
:103C6000F6D100200F4908600D48006838B10126E0
:103C700030070D490860BFF34F8FBFF36F8FFFF719
:103C800011F8304670BD00006000002038000020B0
:103C90007009002040000020E804002028000020D7
:103CA0004C0000204800002004ED00E010B586B074
:103CB0000024FEF727FA16480068D0B100200590CE
:103CC000049003AA04A905A8FEF780FF0222DDE9FB
:103CD00004100023CDE9002102900EA10F48039AA1
:103CE000FFF7B0FD0E4908600846006800B10124E6
:103CF00000BF54B900BF502080F31188BFF34F8F2D
:103D0000BFF36F8F00BF00BFFEE7204606B010BDB7
:103D10006C000020546D7220537663000529000862
:103D2000700000202DE9FF4704460D4616461F4649
:103D3000DDF830804FF0000954B900BF502080F307
:103D40001188BFF34F8FBFF36F8F00BF00BFFEE737
:103D50001448006810B3009501960294062D15DAF8
:103D6000FFF7CCFD022808D10023424669460D48E2
:103D70000068FFF7EBFA814610E000231A46694617
:103D800008480068FFF7E2FA814607E000233A4658
:103D9000694604480068FFF7ADFB8146484604B019
:103DA000BDE8F0876C000020C83D0008000000203E
:103DB000A4000000C61500086C3E0008A400002006
:103DC000DC200000D615000800A24A040000000014
:103DD00000000000010203040607080900000000BB
:103DE000010203040102030406070809020406088D
:103DF00000000000000000000000000000000000C3
:103E000000000000000000000000000000000000B2
:103E100000000000000000000000000000000000A2
:103E20000000000000000000000000000000000092
:103E30000000000000000000000000000000000082
:103E4000AAAAAAAA000000000000000000000000CA
:103E50000000000000000000000000000000000062
:0C3E600000000000000000000000000056
:04000005080000ED02
:00000001FF
